:020000040800F2
:1000000000A00020AD2C0008292B00082B2B000895
:100010002D2B00082F2B0008312B000800000000BA
:10002000000000000000000000000000332B00086A
:10003000352B000800000000372B0008392B000882
:10004000FD2C0008FD2C0008FD2C0008FD2C0008EC
:10005000FD2C0008FD2C0008FD2C0008FD2C0008DC
:10006000FD2C0008FD2C0008FD2C0008FD2C0008CC
:10007000FD2C0008FD2C0008FD2C0008FD2C0008BC
:10008000FD2C0008FD2C0008FD2C000800000000DD
:10009000000000000000000000000000F52B000838
:1000A000092C0008252C0008FD2C0008FD2C000858
:1000B000FD2C00080000000000000000FD2C0008DE
:1000C000FD2C0008FD2C0008FD2C0008FD2C00086C
:1000D000FD2C0008FD2C0008FD2C0008FD2C00085C
:1000E000412C0008FD2C000800000000000000006A
:1000F0000000000000000000000000000000000000
:1001000000000000000000000000000000000000EF
:100110000000000000000000592C00080000000052
:10012000FD2C0008FD2C0008FD2C0008FD2C00080B
:10013000FD2C00080000000000000000000000008E
:10014000FD2C0008FD2C0008FD2C0008000000001C
:10015000FD2C0008FD2C0008FD2C0008FD2C0008DB
:10016000FD2C0008FD2C000800000000000000002D
:1001700000000000FD2C000800000000000000004E
:0C018000FD2C0008FD2C0008FD2C0008E0
:10018C0010B5054C237833B9044B13B10448AFF3C5
:10019C0000800123237010BD080000200000000027
:1001AC00582D000808B5034B1BB103490348AFF3A6
:1001BC00008008BD000000000C000020582D000835
:1001CC0038B50A4B054618684FF47A73B0FBF3F058
:1001DC0000F0D0FB044638B9024629464FF0FF30F8
:1001EC0000F088FB204638BD012038BD04000020FB
:1001FC0010B5032000F06CFB0020FFF7E1FF044674
:10020C0018B902F0EFFA204610BD0124FBE70000FC
:10021C00024A136801331360704700BF2C000020A2
:10022C00014B1868704700BF2C00002038B50446FD
:10023C00FFF7F6FF631C054618BF0134FFF7F0FF0C
:10024C00401B8442FAD838BD30B5CC0D04F0040400
:10025C001430C1F30451072303FA01F5235802FAB1
:10026C0001F123EA05031943215030BD806800F0E9
:10027C00010070478068C0F38000704737B50023D9
:10028C0001930446002800F08180456D25B902F0E9
:10029C00C1FAA56584F85050206883689B0077D418
:1002AC008368DD007BD58368D90040F1868000210E
:1002BC00FFF7E0FF636D13F0100F636D63D100283F
:1002CC0061D123F4817343F0020363652068FFF767
:1002DC00CDFF78B95048FFF7C9FF03464F48FFF7E9
:1002EC00C5FF034306D14E4A6068936823F47C1320
:1002FC0003439360E068636B94F820200343A06889
:10030C000343607E012A43EA403343EA024302BFBF
:10031C00626A02F1FF3243EA4243A26A22B1E06A06
:10032C0002F470720243134320683E4AC5682A40A7
:10033C001343C360FFF79EFF23689A68120746D5E4
:10034C002269012A05BF186BE2691A6B02F1FF32B0
:10035C0006BF20F00F00024322F00F021A63636DF8
:10036C0023F0030343F001036365084603B030BD7B
:10037C00019B013B0193019B002BF9D193E71A6977
:10038C0022F0010245E043F0100363650121ECE724
:10039C00836823F0204323F03F03836080E7836866
:1003AC00214A23F0104323F03F0343F08053836032
:1003BC001E4B1B68B3FBF2F3DCE7636D43F01003D9
:1003CC006365A36D43F00103A365012170E7002869
:1003DC00B6D1D86894F83020257E520020F48040A5
:1003EC0042EA853220F002000243DA6094F83820A9
:1003FC00012AC4D1256CE26B18692A43656C42F062
:10040C0001022A43A56C20F4FF602A4320F004006B
:10041C0002431A6194E700BF00000450000104502D
:10042C000003045007C0F0FF400D0300040000203F
:10043C00F7B50023019390F85030012B05460C467C
:10044C0000F07F81012380F850300068FFF712FF25
:10045C00002840F070814B68052B08D8023B032B19
:10046C0065D8DFE803F0025D5F610C2363606168AF
:10047C0028688E0900F1300706F00C0601F01F0108
:10048C001F2303FA01F2F35923EA02032268C2F391
:10049C0084628A401343F351FFF7ECFE2B689A6891
:1004AC00110740F150812868FFF7E0FE002840F06A
:1004BC00D780E66828682368BF4AD0F8B01006F0E9
:1004CC00180EC3F3120722FA0EF21A4021EA0701A2
:1004DC000A43C0F8B020B94A964240F0C180002FC0
:1004EC0040F093809E0E013606F01F02092A4FF051
:1004FC0001014FEA866640F2A28006F0F846914070
:10050C0041EA0602002F40F0CB809B0E013303F032
:10051C001F0303EB43011E39090541F000719BE0F9
:10052C001223A3E71823A1E74FF480739EE7062359
:10053C009CE7DEF86010C3F31200C1F384670EF180
:10054C00640600283AD1C3F38460874240F02081CE
:10055C0021F00041CEF860102368DEF86410C3F37C
:10056C001207C1F384609FBBC3F38463834240F0E2
:10057C00148121F00041316023689168C3F31207A4
:10058C0002F10806C1F3846077BBC3F38463834232
:10059C0040F00A8121F000413160236802F10C0027
:1005AC00D268C3F31206C2F384614EBBC3F38463F7
:1005BC008B4204BF22F00042026074E793FAA3F06E
:1005CC00B0FA80F08742C3D0DEF86410C1F38460C7
:1005DC0093FAA3F3B3FA83F38342CAD091682368E6
:1005EC0002F10806C1F3846093FAA3F3B3FA83F320
:1005FC008342CFD002F10C00D2682368C2F384612D
:10060C0093FAA3F3B3FA83F3D2E793FAA3F2B2FA11
:10061C0082F2013202F01F02092A30D893FAA3F6B3
:10062C00B6FA86F60136B60606F0F84693FAA3F14A
:10063C00B1FA81F1013101F01F02012101E006F054
:10064C00F846914041EA0602A7B9990E013101F032
:10065C001F0101EB410109051143A268FFF7F4FDED
:10066C002168574B194220D10020002385F85030C7
:10067C0003B0F0BD93FAA3F1B1FA81F1E6E793FA76
:10068C00A3F2B2FA82F20132920602F0F84693FA21
:10069C00A3F1B1FA81F1013101F01F0201212EE722
:1006AC0093FAA3F3B3FA83F330E7464B464A9868C0
:1006BC00914200F0E0741AD10202D5D42968434A61
:1006CC009142D1D19A6822F0E072224342F40002A6
:1006DC009A603F4B3F4A1B68B3FBF2F20C23534327
:1006EC000193019B002BBFD0019B013BF8E73A4AD9
:1006FC0091420FD110F08070B6D12968A2F1F74267
:10070C009142B1D19A6822F0E072224342F0807299
:10071C009A60AAE7314A9142A6D110F48000A3D185
:10072C0029682A4A91429FD19A6822F0E0722243AA
:10073C0042F48002ECE76A6D42F020026A651846CA
:10074C0093E7022094E700287FF4ADAEA2682168FD
:10075C001846FFF779FD2669D5F800E02368DEF826
:10076C000C10042E0EF160023FF4E3AEC1F3C10194
:10077C004800616903F0F843814043F0004319439A
:10078C0052F82600164B0340194342F826108AE60D
:10079C00DEF86410C1F38460E6E69168236802F128
:1007AC000806C1F38460F0E602F10C00D2682368FD
:1007BC00C2F38461FAE600BFFFFF070000007F4030
:1007CC000000088000030450000052C700000450D1
:1007DC0004000020400D0300000084CB01000080C9
:1007EC0000F0FF03806800F0010070478068C0F3E0
:1007FC008000704730B590F85030012B9BB002460A
:10080C005ED0012380F850302E4B006898420CBF0C
:10081C0003F5807300230193019840B9536D82F85E
:10082C00500043F02003536501201BB030BDFFF78F
:10083C00DDFF03461068FFF7D9FF00283AD1002BE3
:10084C0038D10B68204C13B3A368486823F4604379
:10085C00034392F8300043EA4033A3601948FFF792
:10086C00C1FF03461948FFF7BDFF184304D0002011
:10087C00002382F85030D8E70B68A56889680B43D1
:10088C0025F4716121F00F010B43A360F0E7A3681D
:10089C000C4823F46043A360FFF7A4FF03460B4806
:1008AC00FFF7A0FF1843E2D1A36823F4716323F090
:1008BC000F03EAE7536D43F0200353650120D7E79C
:1008CC000220B2E700000450000304500001045061
:1008DC00074AD36823F4E0631B041B0C43F0BF638B
:1008EC00000243F4003300F4E0600343D36070472C
:1008FC0000ED00E0174B30B5DC68C4F30224C4F102
:10090C000703251D042B28BF0423062D4FF00105DA
:10091C0005FA03F303F1FF338CBF033C00241940A9
:10092C00A14005FA04F4013C2240002842EA0102ED
:10093C004FEA0212AFBF00F1604000F00F00064B0F
:10094C00D2B2A5BF00F56140D2B21A5480F8002390
:10095C0030BD00BF00ED00E014ED00E042090123C2
:10096C0000F01F0003FA00F0014B43F8220070471F
:10097C0000E100E00138B0F1807F0AD2064B074A53
:10098C005860F02182F823100020072298601A602A
:10099C0070470120704700BF10E000E000ED00E060
:1009AC002DE9F04F85B00B68DFF86481564A01934E
:1009BC004FF00F090023019CDC4002D105B0BDE8CB
:1009CC00F08F012404FA03FA019C14EA0A0500F0E2
:1009DC0093804C6824F0100BBBF1020F11D1DF088F
:1009EC0000EB870703F0070E3E6A4FEA8E0E09FAFA
:1009FC000EFC26EA0C0C0E6906FA0EF646EA0C06FC
:100A0C003E624FEA430C0327066807FA0CF7FF43D4
:100A1C0004F0030E3E400EFA0CFE0BF1FF3B4EEAC7
:100A2C000606BBF1010F066011D8866806EA070BB3
:100A3C00CE6806FA0CFE4EEA0B068660466826EA7D
:100A4C000A0AC4F300169E4046EA0A064660C668C7
:100A5C0037408E6806FA0CF63743E600C7604BD574
:100A6C00D8F8606046F00106C8F86060D8F860609D
:100A7C0023F0030707F1804706F0010607F58037DE
:100A8C00039603F0030E039EBE684FEA8E0E09FA1E
:100A9C000EFCB0F1904F26EA0C0C2FD01B4EB0423E
:100AAC002ED006F58066B0422CD006F58066B0429A
:100ABC0014BF0726032606FA0EF646EA0C06BE609D
:100ACC001668EF4314F4803F0CBF3E402E43166073
:100ADC00566814F4003F0CBF3E402E435660966897
:100AEC0014F4801F0CBF3E402E439660D668A402BF
:100AFC0054BF3E402E43D66001335CE70026DAE754
:100B0C000126D8E70226D6E700040140000400487D
:100B1C00001002400AB181617047816270474369DD
:100B2C00594041617047704708B5044B59690142FF
:100B3C0002D05861FFF7F7FF08BD00BF0004014069
:100B4C0010B5044600284AD090F8413003F0FF025B
:100B5C001BB980F8402001F0A1FE242384F8413019
:100B6C002368E1681A6822F001021A60626822F0B8
:100B7C0070621A619A68012922F400429A60A26894
:100B8C0024D142F400429A605A68616942F00072C2
:100B9C0042F400425A60DA6822F40042DA602269B8
:100BAC000A43A16942EA0122DA60216AE2690A4336
:100BBC001A601A6842F001021A6000202023606457
:100BCC0084F84130206384F8420010BD42F40442A2
:100BDC0002299A6004BF4FF400625A60D4E70120E6
:100BEC0010BD90F84120D2B2202A10B51DD190F83A
:100BFC004030012B19D0242380F8413003681C6845
:100C0C0024F001041C601C6824F480541C601C68D3
:100C1C0021431960196841F001011960002380F823
:100C2C00412080F84030184610BD022010BD10B590
:100C3C0090F84140E4B2202C1CD190F84030012BAC
:100C4C0018D0242380F8413003681A6822F001027E
:100C5C001A601A6822F4706242EA012119601A685B
:100C6C0042F001021A60002380F8414080F84030C5
:100C7C00184610BD022010BD024B186800F4C0606D
:100C8C00704700BF00700040174B1A68B0F5007F2A
:100C9C0002F4C0621CD1B2F5007F15D01A6822F4A0
:100CAC00C06242F400721A60104A116832224A4340
:100CBC000F49B2FBF1F2194601325869400500D5D3
:100CCC0022B94B695B050DD400207047013AF4E75B
:100CDC00B2F5806F1FBF1A6822F4C06242F48062C2
:100CEC001A60F1E7032070470070004004000020F8
:100CFC0040420F0037B51E4DAB6DDA00044618D5D7
:100D0C00FFF7BAFFB0F5007F23D1802C29D9A02C96
:100D1C008CBF02200120174A136823F007030343FA
:100D2C001360136803F00703181A18BF012003B0EF
:100D3C0030BDAB6D43F08053AB65AB6D03F08053AE
:100D4C000193019BFFF798FFAB6D23F08053AB65CC
:100D5C00D8E7802C07D808D0A4F17003584258412A
:100D6C00D9E70020D7E70320D5E70220D3E700BF5F
:100D7C000010024000200240254B9A68D96812F0FE
:100D8C000C0205D00C2A15D101F00301012918D150
:100D9C0019682048090755BFD3F894101968C1F396
:100DAC000321C1F3031150F8210082B30C2A09D09E
:100DBC0000207047042A29D0082A174818BF0020A1
:100DCC0070470020D968DA6801F00301C2F30212FF
:100DDC00022902F1010205D0032912D0D968C1F30E
:100DEC00062103E0D9680D48C1F30621DB68B0FB8E
:100DFC00F2F0C3F34163013348435B00B0FBF3F003
:100E0C007047D9680448C1F30621EFE703487047DF
:100E1C00001002400430000800127A000024F40094
:100E2C002DE9F743054618B9012003B0BDE8F0835E
:100E3C00A94C0368A668E768D90606F00C0607F00B
:100E4C0003073CD51EB10C2E67D1012F65D1236849
:100E5C009A0702D5EB69002BE6D02368686A1B075A
:100E6C0056BFD4F8943023681B0903F0F003834277
:100E7C003ED2FFF73FFF0028D6D1236843F008038A
:100E8C00236023686A6A23F0F003134323606368CA
:100E9C002A6A23F47F4343EA02236360FFF76CFF63
:100EAC00A3688E4AC3F30313D35C03F01F03D8402B
:100EBC008B4B18600020FFF783F90028B5D12B6805
:100ECC00DB0761D42B68980700F1A0802B681B0707
:100EDC0000F1D4802B685F0700F12B812B689A06F8
:100EEC0000F1A381EB6A002B40F0C98100209CE744
:100EFC00236843F008032360236823F0F0030343C3
:100F0C00236063682A6A23F47F4343EA0223636005
:100F1C00FFF7F0FE0028C1D086E7EB691BB323680E
:100F2C0043F001032360FFF77BF9804623689907A0
:100F3C0011D5236843F00803236023686A6A23F001
:100F4C00F0031343236063682A6A23F47F4343EA64
:100F5C0002236360B3E7FFF763F9A0EB08000228F4
:100F6C00E4D9032061E7236823F001032360FFF732
:100F7C0057F9804623689A07A1D5FFF751F9A0EBE2
:100F8C0008000228F6D9ECE7082E03D00C2E08D165
:100F9C00032F06D12368990394D56B68002B91D14C
:100FAC0042E76B68B3F5803F10D1236843F480337C
:100FBC002360FFF735F9804623689A0382D4FFF744
:100FCC002FF9A0EB08006428F6D9CAE7B3F5A02FD7
:100FDC0004D1236843F480232360E6E7226822F4DB
:100FEC0080322260226822F480222260002BE0D121
:100FFC00FFF716F9804623689B037FF563AFFFF775
:10100C000FF9A0EB08006428F5D9AAE7042E03D049
:10101C000C2E10D1022F0ED12368580503D5EB6886
:10102C00002B3FF401AF63682A6923F0FE4343EAC7
:10103C00026363604AE7EB687BB1236843F4807317
:10104C002360FFF7EDF8074623685905EBD4FFF74B
:10105C00E7F8C01B0228F7D983E7236823F48073D1
:10106C002360FFF7DDF8074623685A057FF52EAF9E
:10107C00FFF7D6F8C01B0228F6D972E76B69002B74
:10108C0043D0D4F89430A96903F0100291420ED0E9
:10109C0003F00302022A3FF4C7AED80722D4D4F8D7
:1010AC009430AA6923F010031343C4F89430D4F895
:1010BC00943043F00103C4F89430FFF7B1F80746BD
:1010CC00D4F894309A073FF505AFFFF7A9F8C01B89
:1010DC001128F5D945E700BF00100240F42F000895
:1010EC0004000020D4F8943023F00103C4F89430A9
:1010FC00FFF796F80746D4F894309907CFD5FFF749
:10110C008FF8C01B1128F6D92BE7D4F8943023F0B4
:10111C000103C4F89430FFF783F80746D4F89430F1
:10112C009B077FF5D7AEFFF77BF8C01B1128F5D9CD
:10113C0017E7A36DDF002FD4A36D43F08053A36595
:10114C00A36D03F080530193019B4FF00108754F81
:10115C003B68D80523D5AA68D10731D4D4F8903090
:10116C0023F00103C4F89030D4F8903023F004033A
:10117C00C4F89030002A3AD1FFF752F841F288397E
:10118C000746D4F89030990749D4D4F8903023F01E
:10119C008003C4F8903033E04FF00008D7E73B6889
:1011AC0043F480733B60FFF73BF881463B68DB05FB
:1011BC00D1D4FFF735F8A0EB09000228F6D9D0E618
:1011CC00D4F8903002F0800123F080030B43C4F874
:1011DC009030D4F89030570742BF43F00403C4F862
:1011EC009030D4F8903043F00103C4F89030FFF7FE
:1011FC0017F841F288390746D4F89030980708D58B
:10120C00B8F1000F3FF46AAEA36D23F08053A365D1
:10121C0064E6FFF705F8C01B4845EDD9A1E6FEF7DB
:10122C00FFFFC01B4845ACD99BE6AB6A9BB1D4F819
:10123C00983043F00103C4F89830FEF7F1FF0746ED
:10124C00D4F898309B073FF54DAEFEF7E9FFC01B75
:10125C000228F5D985E6D4F8983023F00103C4F8B8
:10126C009830FEF7DDFF0746D4F8983098077FF5E5
:10127C0039AEFEF7D5FFC01B0228F5D971E60C2E4E
:10128C003FF4D2AD022B236823F08073236033D15B
:10129C00FEF7C6FF06462368990127D4AA6B2B6B71
:1012AC0043EA02236A6B013A43EA0213EA6B5208DF
:1012BC00013A43EA42532A6C5208013A43EA426328
:1012CC00E360236843F080732360E36843F080732A
:1012DC00E360FEF7A5FF054623689A013FF506AECD
:1012EC00FEF79EFF401B0228F6D93AE6FEF798FF60
:1012FC00801B0228CFD934E6E36823F00303E360B4
:10130C00E36823F08873E360FEF78AFF05462368E1
:10131C009B017FF5EBADFEF783FF401B0228F6D94E
:10132C001FE600BF007000402DE9F0410E46044658
:10133C0010B90120BDE8F081404A136803F007039F
:10134C008B4229D32368D90731D421688A075BD40F
:10135C003A4A136803F007039E425DD311F0040F61
:10136C00374D64D10B0706D5AB68226923F4605363
:10137C0043EAC203AB60FFF7FFFCAB68314AC3F32F
:10138C000313BDE8F041D35C03F01F03D8402E4B90
:10139C0018600020FEF714BF136823F007030B43FB
:1013AC001360136803F007039942C2D1CAE762685D
:1013BC00234D032A2B681BD113F0007FB9D0AB68E7
:1013CC0023F003031343AB60FEF72AFF41F2883886
:1013DC000746AB68626803F00C03B3EB820FB4D022
:1013EC00FEF71EFFC01B4045F3D90320BDE8F0817A
:1013FC00022A02D113F4003FE0E712B913F0020FF6
:10140C00DCE713F4806FD9E70D4AA068936823F0EA
:10141C00F003034393609BE7136823F00703334304
:10142C001360136803F007039E4282D196E7AB6802
:10143C00E26823F4E0631343AB6093E700200240BF
:10144C0000100240F42F0008040000202DE9F341A5
:10145C000546006810F400304CD0754CA36DD800D4
:10146C0040F1DA800026734F3B6843F480733B6095
:10147C00FEF7D6FE80463B68D9052FD5D4F89030C0
:10148C0013F4407314D02A6B934211D0D4F89030DB
:10149C00D4F8902042F48032C4F89020D4F89020F4
:1014AC0023F4407322F48032C4F89020C4F89030B6
:1014BC00DA0709D5FEF7B4FE41F288380746D4F8AE
:1014CC0090309B0740F1A180D4F890302A6B23F424
:1014DC0040731343C4F89030002006E0FEF7A0FEE2
:1014EC00A0EB08000228C6D903201EB1A36D23F07F
:1014FC008053A3652B68DF0708D54D496C68D1F87C
:10150C00882022F003022243C1F888209E0708D5C8
:10151C004749AC68D1F8882022F00C022243C1F86C
:10152C0088205C0708D54249EC68D1F8882022F065
:10153C0030022243C1F88820990608D53C492C6911
:10154C00D1F8882022F440622243C1F888209A0501
:10155C0008D537492C6AD1F8882022F4402222433E
:10156C00C1F888205F0508D531496C6AD1F888200C
:10157C0022F440122243C1F888205E0608D52C497B
:10158C006C69D1F8882022F440522243C1F888209B
:10159C001C0608D52649AC69D1F8882022F44042B3
:1015AC002243C1F88820D90508D52149EC69D1F826
:1015BC00882022F440322243C1F888209A040FD5A7
:1015CC001B49AC6AD1F8882022F040622243C1F852
:1015DC008820B4F1006F02BFCA6842F48012CA605E
:1015EC005B030FD5124AE96AD2F8883023F04063C6
:1015FC000B43B1F1006FC2F8883003D1D36843F4C8
:10160C008013D36002B0BDE8F081FEF709FEC01B69
:10161C0040457FF654AF67E7A36D43F08053A36555
:10162C00A36D03F080530193019B01261BE700BFC0
:10163C00001002400070004070B5044600284AD0EB
:10164C000023836290F85D3003F0FF021BB980F831
:10165C005C2001F059F90223216884F85D300B6895
:10166C00E26823F04003B2F5E06F0B604FF000032B
:10167C002ED91846B2F5706F18BFA362236B2BB925
:10168C00B2F5E06F8CBF022301232363A668636865
:10169C00A56933432669334366693343E6693343AB
:1016AC00266A3343A66A334305F4007633430B6052
:1016BC00636A1A43636B2D0C1A4305F004052A4325
:1016CC000243012300204A60206684F85D3070BD1F
:1016DC004FF48050D0E7012070BD0000036A23F066
:1016EC0001030362036A70B5456882690C6822F4D1
:1016FC00803222F0730222438C6823F002032343CE
:10170C00124CA04206D0124EB04203D006F58066B1
:10171C00B04214D1CE6823F008033343A04223F027
:10172C00040306D00A4CA04203D004F58064A04206
:10173C0005D14C698E6925F44075344325434560C9
:10174C0082614A684263036270BD00BF002C014095
:10175C0000400140036A23F480730362036A426809
:10176C0070B5C4690D6824F4803424F073042C43E0
:10177C008D6823F4007343EA05230F4DA8420ED164
:10178C00CD6823F4006343EA052323F480634D6999
:10179C008E6922F44052354342EA051205E0074DAA
:1017AC00A842F4D0064DA842F1D042604A68C46108
:1017BC00C263036270BD00BF002C014000400140B9
:1017CC0000440140036A23F480530362026A30B57B
:1017DC004468C3690D6823F0807323F4E64343EA3D
:1017EC0005238D6822F4005242EA05320A4DA842C4
:1017FC0007D005F5A055A84203D005F58065A84291
:10180C0004D14D6924F4804444EA85144460C361D6
:10181C004B680364026230BD002C0140036A23F460
:10182C0080330362026A30B54468436D0D6823F45B
:10183C00803323F070032B438D6822F4003242EA8C
:10184C0005420B4DA84207D005F5A055A84203D080
:10185C0005F58065A84204D14D6924F4803444EA2E
:10186C000524446043654B688365026230BD00BF4C
:10187C00002C0140036A23F480130362026A30B522
:10188C004468436D0D6823F0807323F4E04343EA0E
:10189C0005238D6822F4001242EA05520A4DA84233
:1018AC0007D005F5A055A84203D005F58065A842E0
:1018BC0004D14D6924F4802444EA852444604365B2
:1018CC004B68C365026230BD002C01407047704705
:1018DC00704770477047704703681A69910710B5D5
:1018EC0004460FD5DA6892070CD56FF002021A6124
:1018FC009B6901229907027700F08580FFF7E9FFC9
:10190C000023237723681A69520710D5DA68500729
:10191C000DD56FF004021A619B69022213F4407F0B
:10192C002277204675D0FFF7D4FF00232377236856
:10193C001A6911070FD5DA6812070CD56FF0080277
:10194C001A61DB6904229B072277204667D0FFF7D8
:10195C00C0FF0023237723681A69D00610D5DA68F4
:10196C00D1060DD56FF010021A61DB69082213F451
:10197C00407F2277204658D0FFF7ABFF0023237718
:10198C0023681A69D20708D5DA68D00705D56FF035
:10199C0001021A612046FFF79AFF23681A691106A3
:1019AC0008D5DA68120605D56FF080021A61204658
:1019BC0000F0DFFA23681A69D00508D5DA68110639
:1019CC0005D56FF480721A61204600F0D3FA2368B3
:1019DC001A69520608D5DA68500605D56FF0400230
:1019EC001A612046FFF777FF23681A69910622D502
:1019FC00DA6892061FD56FF0200220461A61BDE806
:101A0C00104000F0B5BAFFF763FF2046FFF762FF06
:101A1C0076E7FFF75DFF2046FFF75CFF85E7FFF7F2
:101A2C0057FF2046FFF756FF93E7FFF751FF20467D
:101A3C00FFF750FFA2E710BD1A4A0368904210B599
:101A4C0002D0B0F1804F09D14C6823F07003904262
:101A5C0043EA040309D0B0F1804F06D0124A9042F9
:101A6C0003D002F58062904203D1CA6823F440731C
:101A7C0013434A6923F08003134303608B68C362EA
:101A8C000B688362074B984207D003F5A05398422A
:101A9C0003D003F58063984201D10B6903630123E2
:101AAC00436110BD002C01400040014010B50446BC
:101ABC00A0B190F83D3003F0FF021BB980F83C2038
:101ACC0000F07AFF022384F83D302068211DFFF7D7
:101ADC00B3FF012384F83D30002010BD012010BD60
:101AEC0010B50446A0B190F83D3003F0FF021BB9CD
:101AFC0080F83C2000F03AFF022384F83D30206847
:101B0C00211DFFF799FF012384F83D30002010BD03
:101B1C00012010BD38B50D460446E0B190F83D30BB
:101B2C0003F0FF021BB980F83C20FFF7CFFE022325
:101B3C0084F83D30211D2068FFF77EFF23681A686A
:101B4C0022F008021A60196829431960012384F8ED
:101B5C003D30002038BD012038BD0000036A23F061
:101B6C0010030362036A426870B584690D6824F03F
:101B7C00807424F4E64444EA05248D6823F02003A1
:101B8C0043EA05130E4DA8420ED1CD6823F0800315
:101B9C0043EA051323F040034D698E6922F4406239
:101BAC00354342EA850205E0064DA842F4D0064DC5
:101BBC00A842F1D042604A6884618263036270BDBE
:101BCC00002C0140004001400044014038B590F821
:101BDC003C30012B04464FF0020010D00123082AA0
:101BEC0084F83C3084F83D0043D009D8FAB1042A7B
:101BFC002ED00123002084F83D3084F83C0038BD01
:101C0C00102A47D0142A56D00C2AF2D12068FFF79C
:101C1C00D9FD23680969DA6942F40062DA61DA698C
:101C2C0022F48062DA61DA6942EA012230E020684B
:101C3C00FFF754FD236809699A6942F008029A611A
:101C4C009A6922F004029A619A690A439A61D0E770
:101C5C002068FFF783FF236809699A6942F40062E0
:101C6C009A619A6922F480629A619A6942EA012225
:101C7C00ECE72068FFF76EFD23680969DA6942F02A
:101C8C000802DA61DA6922F00402DA61DA690A43DD
:101C9C00DA61AEE72068FFF7C1FD236809695A6D68
:101CAC0042F008025A655A6D22F004025A655A6DC8
:101CBC000A435A659DE72068FFF7DCFD2368096934
:101CCC005A6D42F400625A655A6D22F480625A656C
:101CDC005A6D42EA0122ECE710B584680A4324F4F9
:101CEC007F4442EA03232343836010BD90F83C30C9
:101CFC00012B70B504464FF0020017D084F83D005C
:101D0C002068012384F83C308268484B1340836080
:101D1C000B68402B72D015D8102B0CD007D853B1B0
:101D2C000123002084F83D3084F83C0070BD202B4A
:101D3C0001D0302BF4D1826843F0070322F07002FB
:101D4C00134333E0702B33D01BD8502B3FD0602B78
:101D5C00E6D14D68CE68016A21F0100101628269FA
:101D6C00036A22F4704223F0A00343EA051342EA0B
:101D7C00063282610362836823F0700343F06703C9
:101D8C0014E0B3F5805F0CD0B3F5005FC8D1CB681D
:101D9C004A688968FFF7A0FF2268936843F4804380
:101DAC0013E0836823F4803323F007038360B7E7E1
:101DBC00CB684A688968FFF78FFF2268936823F421
:101DCC00803323F0770343F077039360A8E74A68E6
:101DDC00CE68016A056A25F001050562836921F068
:101DEC000A0123F0F00343EA06130A4383610262FB
:101DFC00836823F0700343F05703D7E74A68CE6833
:101E0C00016A056A25F001050562836921F00A0162
:101E1C0023F0F00343EA06130A43836102628368EA
:101E2C0023F0700343F04703C0E700BF8800FEFFB8
:101E3C00036A01F01F0110B501248C4023EA04034E
:101E4C000362036A8A401A43026210BD10B504464D
:101E5C0001220068FFF7ECFF2368104A934217D069
:101E6C0002F5A052934213D002F5806293420FD038
:101E7C0099680B480140062908D09A680240B2F5CF
:101E8C00803F03D01A6842F001021A60002010BD96
:101E9C005A6C42F400425A64EAE700BF002C01403D
:101EAC000700010090F83C30012B30B54FF00203D5
:101EBC001BD002680E4D80F83D3053689468AA42DE
:101ECC0002BF4D6823F470032B430D68896823F01F
:101EDC0070032B4324F08004536021430123916051
:101EEC0080F83D30002380F83C30184630BD00BFF0
:101EFC00002C014090F83C30012B10B534D0CB684D
:101F0C008A681A4C23F4407313434A6823F48063A1
:101F1C0013430A6823F4006313430A6923F48053C0
:101F2C0013434A6923F4005313438A6A23F480430E
:101F3C0013438A6923F4702343EA02430268A242E2
:101F4C000CD14C6A23F4700343EA0453CC69096A3C
:101F5C0023F08073234323F000730B43536400235B
:101F6C0080F83C30184610BD022010BD002C0140FA
:101F7C00704770477047000008B54FF4806200212D
:101F8C00094800F0DBFE094A00231370084A13705D
:101F9C00084A1370084B07221A70084B01221A705A
:101FAC00BDE8084000F0D2B830000020240000202A
:101FBC0025000020320400203104002030040020D1
:101FCC002DE9F04F1F4B96781C785768DFF8888006
:101FDC00A142A4BF4C1C1C701B4C2578F6088D42EA
:101FEC0088BF21708C194FEAC41C0546013FACF127
:101FFC00800CB2F800E0864475450FD3134A0130CB
:10200C001170134A28441070E2B2072A88BF0722C5
:10201C001A70104B01221A70BDE8F08F0CEB050EF4
:10202C00C644BA46B146AEF1800EB9F1000F02D1EA
:10203C0001353744DDE71AF801BF8EF880B009F19D
:10204C00FF39F0E731040020320400202500002085
:10205C0024000020300400203000002010B50122A4
:10206C00044610210348FEF755FD2046BDE81040FC
:10207C0000F0DCB80008004810B50022044610211E
:10208C000348FEF747FD2046BDE8104000F0CEB8EF
:10209C000008004838B5012220212548254CFEF7C0
:1020AC0039FD002210212248FEF734FD00222021A8
:1020BC001F48FEF72FFD0A2323602368002BFCD159
:1020CC00012220211A48FEF725FD0A2323602368EC
:1020DC00002BFCD1A020FFF7CFFFC020FFF7CCFFD7
:1020EC000A2323602368002BFCD18120FFF7C4FF57
:1020FC007F20FFF7C1FF8D20FFF7BEFF1420FFF7F5
:10210C00BBFF642323602568002DFCD1AF20FFF7B3
:10211C00B3FF4020FFF7B0FFB020FFF7ADFF10205A
:10212C00FFF7AAFF2846BDE83840FFF7A5BF00BF60
:10213C00000800486005002010B504468120FFF718
:10214C009BFF2046BDE81040FFF796BF2DE9F047F6
:10215C00164F174E3A78DFF85C803AB90823337083
:10216C00002388F800303B70BDE8F0873478DFF846
:10217C00489098F80030A342F0D3A4F15000C0B2BC
:10218C00FFF77AFF1020FFF777FF0020FFF774FFAF
:10219C0009EBC41505F1800A554502D10134E4B2AE
:1021AC00E7E715F8010BFFF759FFF5E730040020BE
:1021BC0032040020310400203000002010B5041E31
:1021CC000FD010DD002210210848FEF7A3FC002CD4
:1021DC00074BB8BF6442FF2C1B68A8BFFF245C638D
:1021EC0010BD0124EEE70122EDE700BF000400481A
:1021FC007806002010B5041E0FD010DD002210212F
:10220C000848FEF787FC002C074BB8BF6442FF2C34
:10221C001B68A8BFFF249C6310BD0124EEE70122BC
:10222C00EDE700BF0004004878060020064A13467C
:10223C0091688907FCD5D0609A68D107FCD5DA681B
:10224C009A681206FCD470470030014010B5A4B057
:10225C004422002113A800F071FD1422002101A8D2
:10226C0000F06CFD0021342206A800F067FD4FF44D
:10227C000070FEF709FD4FF48072169240221792FF
:10228C0001220223209213A80822002421921393E6
:10229C001E931F9322932393FEF7C2FD03210F235A
:1022AC0001A801930291039404940594FFF73CF860
:1022BC0044F2400306A806930B94FFF7C7F824B02A
:1022CC0010BD00002DE980489DB0FDF791FFFFF790
:1022DC00BDFF1422002111A800F030FDB74BB84D02
:1022EC00DA6C42F00402DA64DA6C02F00402029254
:1022FC00029ADA6C42F08002DA64DA6C02F0800244
:10230C000392039ADA6C42F00102DA64DA6C02F09E
:10231C0001020492049ADA6C42F00202DA64DA6C7A
:10232C0002F002020592059ADA6C42F00802DA64B5
:10233C00DB6C03F00803069300220C214FF0904055
:10234C00069BFEF7E7FB002230219E48FEF7E2FBDE
:10235C00002243F230019C48FEF7DCFB00220421F2
:10236C009A480024FEF7D6FB4FF003094FF6C073D2
:10237C0011A994481193CDF848901394FEF710FBD3
:10238C000B2311A9924811934FF0010ACDF84890F4
:10239C001394FEF705FB0C2311A94FF090401193F9
:1023AC00CDF848A013941494FEF7FAFA302311A92F
:1023BC0084481193CDF848A013941494FEF7F0FAC6
:1023CC0040F2074311A98048119312941394FEF71D
:1023DC00E7FA4FF4964311A97B481193CDF8489036
:1023EC001394FEF7DDFA43F2300311A976481193EA
:1023FC00CDF848A013941494FEF7D2FA48F2C00317
:10240C0011A9714811931295CDF84CA0FEF7C8FA9A
:10241C004FF4006311A94FF0904011934FF4805882
:10242C001295CDF84CA0FEF7BBFA11A94FF09040D5
:10243C000426CDF848901394CDF84480FEF7B0FAFA
:10244C0011A96248CDF848A0139414941196FEF784
:10245C00A7FA224621461720FEF74CFA1720FEF762
:10246C007DFA224621462820FEF744FA2820594DB1
:10247C00FEF774FA1822214611A80A940B940C94B6
:10248C0000F05CFC544BEC600827284685E81800EB
:10249C00AF602C612C766C76C5F81CA085F82040BA
:1024AC00AC62EC6285F830406C6385F838406E6144
:1024BC00FDF7E4FE0AA928460A94FEF79BF9474B60
:1024CC001193062311A9129328467F23444D13948C
:1024DC00149316941596FDF7ABFF424A424BAC6031
:1024EC00284685E80C00C5F80CA02C616C61AC6129
:1024FC00EC612C62FEF724FB21462846FEF771FBAB
:10250C0021462846FEF793FB3848394984604FF43E
:10251C00827380E80A004FF4E063C3604FF48023B9
:10252C0083612823C3610723C3620461446104628D
:10253C004462846204634763FFF77EF821461022ED
:10254C000AA82C4DDFF8B0A000F0F8FB1C222146A5
:10255C0011A807940894099400F0F0FB4FF0804305
:10256C0085E8080228464FF480734FF08009EB6031
:10257C000193AC602C61C5F81890FFF797FA0AA983
:10258C002846CDF82880FFF7B1FB2846FFF7A8FABC
:10259C0007A9284607940994FFF784FC6023224678
:1025AC0011A92846119313941594CDF84890FFF770
:1025BC000DFB402211A9129228461FE00010024088
:1025CC00000021100008004800040048000C0048DE
:1025DC00001C0048FC0400200000045002003004E1
:1025EC004C040020005400407321600014060020AD
:1025FC0000300140780600208C0500203246FFF7A1
:10260C00E5FA284600F032FA6C49CAF808400A2369
:10261C004FF4207B5046CAF80C308AE80208CAF8FE
:10262C001840119412941394FFF740FA394650460F
:10263C00FFF770FA11A950461194DFF8A4A1139476
:10264C00FFF730FC1022214611A800F077FB5C4903
:10265C000A940A235046CAF80C300B940C948AE85E
:10266C000208CAF80840CAF81040CAF81440CAF860
:10267C001840FFF71BFA11A95046CDF84480FFF71C
:10268C0035FB39465046FFF745FA0AA950460A94DD
:10269C000C94FFF707FC4B4A4B4994600A231046F5
:1026AC00D36082E802081461546194610092FFF7D0
:1026BC00FDF9009A39461046FFF72CFA21461C22E8
:1026CC000AA807940894099400F038FB21462C22A0
:1026DC0011A800F033FB3D4F3D48019BFB600222EB
:1026EC0087E805003846BC603C617C61C7F81890EF
:1026FC00FFF7F6F907A93846079408940994FFF7F1
:10270C00D1FB224660230AA938460A930C940D94F7
:10271C000E940F941094CDF82C90FFF757FA4FF4B9
:10272C00005311A9169338464FF000731993119466
:10273C001294139414941594179418941A941B943B
:10274C00FFF7D8FB384600F091F92046FFF736FD2D
:10275C002046FFF74FFD41461E48FEF7E0F92146A3
:10276C003846FFF773FB21462846FFF76FFB3146CF
:10277C002846FFF76BFB2B68B4225A63FFF78AFCE1
:10278C00FF20FFF7D9FCFFF7F7FB21462046124A42
:10279C00FFF716FCFFF7DAFC104B1C600D4C4FF4E6
:1027AC00FA70FDF743FD20464FF48051FEF7B7F960
:1027BC004FF400512046FEF7B2F9F0E7001000404C
:1027CC0000400140CC06002000440140CC05002014
:1027DC00002C014000040048EC2F0008F8040020F5
:1027EC009C0400200A4B1A6E42F001021A661A6E03
:1027FC0082B002F001020092009A9A6D42F080526F
:10280C009A659B6D03F080530193019B02B0704756
:10281C000010024010B5044688B01422002103A811
:10282C0000F08CFA22681B4B9A4230D103F17043B2
:10283C00A3F5F8330B24DA6C174842F40052DA642F
:10284C00DA6C02F400520092009ADA6C42F0040244
:10285C00DA64DA6C02F004020192019ADA6C42F04A
:10286C000102DA64DB6C049403F001030293029B13
:10287C0003A90F230393FEF793F80323039303A9F0
:10288C0000234FF0904004940593FEF789F808B0AC
:10289C0010BD00BF000004500008004810B50446ED
:1028AC0088B01422002103A800F048FA2268144BC7
:1028BC009A4222D1134CE36C43F00103E364E36CC2
:1028CC0003F001030193019B4FF4C06303931223A4
:1028DC000493012305930323069303A904234FF0C8
:1028EC0090400793FEF75CF8A36D43F40013A365C7
:1028FC00A36D03F400130293029B08B010BD00BF3C
:10290C00005400400010024010B5044688B0142258
:10291C00002103A800F012FA2268134B9A4220D12E
:10292C0003F5604303A91A6E42F480521A661A6EBC
:10293C0002F480520192019ADA6C42F00102DA64DC
:10294C00DB6C03F001030293029BF023039302233D
:10295C000493032306934FF0904005230793FEF74F
:10296C001FF808B010BD00BF0030014007B5114B77
:10297C0002689A421AD103F5644318201A6E42F485
:10298C0000621A661B6E002203F400631146019369
:10299C00019BFDF7AFFF1820FDF7E0FF0022192087
:1029AC001146FDF7A7FF1920FDF7D8FF03B05DF81E
:1029BC0004FB00BF002C01401FB50368B3F1804F2E
:1029CC000DD103F504339A6D42F001029A659B6DAB
:1029DC0003F001030093009B05B05DF804FB1F4A54
:1029EC00934212D11E4B9A6D42F010029A659B6D68
:1029FC00002203F01003019336201146019BFDF7D2
:102A0C0079FF3620FDF7AAFFE6E7164A934210D16C
:102A1C00134B1A6E42F480321A661B6E002203F4BA
:102A2C008033029318201146029BFDF763FF182098
:102A3C00E8E70D4A9342CFD1094B1A6E42F40032AB
:102A4C001A661B6E002203F40033039319201146FF
:102A5C00039BFDF74FFF1920D4E700BF0010004087
:102A6C0000100240004001400044014030B50446D3
:102A7C0089B01422002103A800F060F92368244ACD
:102A8C00934217D1234BDA6C42F00102DA64DB6C0F
:102A9C0003F001030093009B4FF480730393022314
:102AAC0004930123079303A94FF09040FDF778FF9F
:102ABC0009B030BDB3F1804FFAD103F504330225D0
:102ACC00DA6C42F00102DA64DA6C02F00102019273
:102ADC00019ADA6C42F00202DA64DB6C049503F0C2
:102AEC0002030293029B01244FF4004303A94FF00D
:102AFC00904003930794FDF753FF0823039300239F
:102B0C00049505930693079403A90348CEE700BFE9
:102B1C00002C014000100240000400487047FEE702
:102B2C00FEE7FEE7FEE770477047704710B5FDF70C
:102B3C006FFB234B1A6812B11A68013A1A60214ACA
:102B4C00138801339BB2642B01D0138010BD00237A
:102B5C0013801D4A1D4B1E481968136811601D4ACD
:102B6C00CB1A036013889BB23BB11388013B9BB219
:102B7C00138013B9184B01221A7018490B889BB299
:102B8C00ABB9174B1869012200F0070080F0FF0069
:102B9C00134610EA030406D10132D2B25B00092AB3
:102BAC00DBB2F6D123461B071CBF0E4B1A700B88E9
:102BBC009BB21BB10B88013B9BB20B8010BD00BFBD
:102BCC006005002028000020EC040020E004002018
:102BDC001006002048040020260000209804002045
:102BEC00000400480000002008B54020FDF79CFFC1
:102BFC008020BDE80840FDF797BF000008B50448E9
:102C0C00FEF76AFE0348BDE80840FEF765BE00BF4C
:102C1C00CC0500209C04002008B50448FEF75CFE9F
:102C2C000348BDE80840FEF757BE00BFCC050020A6
:102C3C00CC06002008B54FF40060FDF775FF4FF48B
:102C4C000040BDE80840FDF76FBF00000148FEF7EB
:102C5C0043BE00BF8C0500200F49D1F8883043F4E7
:102C6C007003C1F888300D4B1A68002042F0010245
:102C7C001A6098601A6822F0A85222F410221A6086
:102C8C004FF48052DA601A6822F480221A6098613C
:102C9C004FF000638B60704700ED00E000100240C5
:102CAC00DFF834D0002103E00C4B5B584350043167
:102CBC000B480C4B42189A42F6D30B4A02E0002305
:102CCC0042F8043B094B9A42F9D3FFF7C5FF00F0D9
:102CDC0011F8FFF7F7FAFEE700A000203C300008DF
:102CEC000000002008000020080000201C07002025
:102CFC00FEE7000070B50D4E0D4CA41BA410002572
:102D0C00A54209D10B4E0C4C00F020F8A41BA410CA
:102D1C000025A54205D170BD56F8253098470135E0
:102D2C00EEE756F8253098470135F2E734300008C5
:102D3C0034300008343000083830000802440346B0
:102D4C00934200D1704703F8011BF9E7F8B500BFB7
:102D5C00F8BC08BC9E467047F8B500BFF8BC08BC70
:042D6C009E467047C8
:102D70000001FFFFFC0001FFFFFC0001FFFFFC0062
:102D800001FFFFFC0000E018000000E01C00000054
:102D9000E01C000001C00E000001C00E000001C0D8
:102DA0000E000001C00E000001C00E000001E01E78
:102DB000000001FFFE0003F8FFFC000FFE7FFC0097
:102DC0000FFF7FF0003FFFC000003FFFC000003D4D
:102DD000EFC0000079E7C0000079E3CFFCE079E3C1
:102DE000CFFCE079E3C0000079E3C0000079E3C0E4
:102DF0000C0079E7800C0079FF87FF803DFF0FFF13
:102E0000803DFF0C0C003DFE0C0C0001F80C0C008A
:102E10000000000000000000000000000000003F73
:102E2000FF8000003FFF8000000000000000000065
:102E300000000000000000000FC00000001FE000C4
:102E400000003B7000000033300000003330000011
:102E500000337000000033E000000033C0000000C9
:102E60000000000000000000000000000000000F53
:102E7000C00000001FE0000000387000000030308B
:102E80000000003030000000303000000030300022
:102E900000000000000000003000000000300000D2
:102EA000001FFE0000003FFE000000303000000068
:102EB0003030000000303000000000000000000052
:102EC000000000003FF00000003FF0000000006044
:102ED0000000000030000000003000000000000092
:102EE000000000000000000FC00000001FE0000014
:102EF000003870000000303000000030300000006A
:102F0000303000000038700000001FE00000000FAB
:102F1000C0000000000000000000000000000000F1
:102F20000000003FF00000003FF0000000006000E3
:102F30000000003000000000300000000030000001
:102F40000000300000003FF00000003FE000000003
:102F50000000000000000000000000000000003F32
:102F6000F38000003FF3800000000000000000003C
:102F700000000000000000000FC00000001FE00083
:102F800000003870000000303000000030300000D9
:102F90000030300000003030000000000000000071
:102FA000000000000031E000000031F000000033BC
:102FB00030000000333000000033300000003E30AD
:102FC0000000001E300000000000000000000000B3
:102FD00000000000000000000000000000000000F1
:102FE0000000000000000000000000007F0028003A
:102FF000702D000800000000000000000102030422
:1030000006070809A0860100400D0300801A06008B
:1030100000350C0040420F0080841E0000093D0076
:1030200000127A000024F40000366E010048E80126
:04303000006CDC0252
:04303400B1010008DE
:043038008D010008FE
:08303C00FF00000000093D0047
:0400000508002CAD16
:00000001FF
