:020000040800F2
:1000000000A000206D8C0008D9860008DD8600085D
:10001000E1860008E5860008E98600080000000087
:10002000000000000000000000000000ED86000855
:10003000F186000800000000F5860008F986000837
:10004000BD8C0008BD8C0008BD8C0008BD8C00086C
:10005000BD8C0008BD8C0008BD8C0008BD8C00085C
:10006000BD8C0008BD8C0008BD8C0008E18700082D
:10007000ED870008BD8C0008BD8C0008BD8C000811
:10008000BD8C0008BD8C0008BD8C0008000000007D
:10009000000000000000000000000000F9870008D8
:1000A0000D88000829880008BD8C0008BD8C000858
:1000B000BD8C00080000000000000000458800081A
:1000C00051880008BD8C0008BD8C0008BD8C00085C
:1000D000BD8C0008BD8C0008BD8C0008BD8C0008DC
:1000E0005D880008BD8C00080000000000000000D2
:1000F0000000000000000000000000000000000000
:1001000000000000000000000000000000000000EF
:1001100000000000000000007588000800000000DA
:10012000BD8C0008BD8C0008BD8C0008BD8C00088B
:10013000BD8C00080000000000000000000000006E
:10014000BD8C0008BD8C0008BD8C000800000000BC
:10015000BD8C0008BD8C0008BD8C0008BD8C00085B
:10016000BD8C0008BD8C00080000000000000000ED
:1001700000000000BD8C000800000000000000002E
:0C018000BD8C0008BD8C0008BD8C000880
:1001900010B5054C237833B9044B13B10448AFF3C1
:1001A00000800123237010BDC0000020000000006B
:1001B0003095000808B5034B1BB103490348AFF362
:1001C000008008BD00000000C40000203095000839
:1001D000034613F8012B002AFBD1181A0138704787
:1001E00001F0FF01102A2BDB10F0070F08D010F8E8
:1001F000013B013A8B422DD010F0070F42B3F6D1EC
:10020000F0B441EA012141EA014122F007047FF004
:1002100000070023F0E80256083C85EA010586EA5B
:10022000010685FA47F5A3FA87F586FA47F6A5FA97
:1002300087F68EB9EED1F0BC01F0FF0102F00702A3
:1002400032B110F8013B013A83EA010313B1F8D14E
:100250000020704701387047002D06BF354603382F
:10026000073815F0010F07D1013015F4807F02BF68
:10027000013015F4C03F0130F0BC0138704700BFB9
:1002800081F0004102E000BF83F0004330B54FEA47
:1002900041044FEA430594EA050F08BF90EA020FB4
:1002A0001FBF54EA000C55EA020C7FEA645C7FEA47
:1002B000655C00F0E2804FEA5454D4EB5555B8BF6A
:1002C0006D420CDD2C4480EA020281EA030382EADB
:1002D000000083EA010180EA020281EA0303362D6D
:1002E00088BF30BD11F0004F4FEA01314FF4801C40
:1002F0004CEA113102D0404261EB410113F0004F52
:100300004FEA03334CEA133302D0524263EB430308
:1003100094EA050F00F0A780A4F10104D5F1200EA6
:100320000DDB02FA0EFC22FA05F2801841F1000101
:1003300003FA0EF2801843FA05F359410EE0A5F1D5
:1003400020050EF1200E012A03FA0EFC28BF4CF006
:10035000020C43FA05F3C01851EBE37101F00045BC
:1003600007D54FF0000EDCF1000C7EEB00006EEBC9
:100370000101B1F5801F1BD3B1F5001F0CD3490853
:100380005FEA30004FEA3C0C04F101044FEA4452AA
:1003900012F5800F80F09A80BCF1004F08BF5FEA31
:1003A000500C50F1000041EB045141EA050130BD11
:1003B0005FEA4C0C404141EB010111F4801FA4F1B4
:1003C0000104E9D191F0000F04BF01460020B1FA09
:1003D00081F308BF2033A3F10B03B3F120020CDA41
:1003E0000C3208DD02F1140CC2F10C0201FA0CF01F
:1003F00021FA02F10CE002F11402D8BFC2F1200C84
:1004000001FA02F120FA0CFCDCBF41EA0C01904039
:10041000E41AA2BF01EB0451294330BD6FEA040482
:100420001F3C1CDA0C340EDC04F11404C4F120026D
:1004300020FA04F001FA02F340EA030021FA04F37F
:1004400045EA030130BDC4F10C04C4F1200220FAD6
:1004500002F001FA04F340EA0300294630BD21FA14
:1004600004F0294630BD94F0000F83F4801306BFDA
:1004700081F480110134013D4EE77FEA645C18BFCE
:100480007FEA655C29D094EA050F08BF90EA020F65
:1004900005D054EA000C04BF1946104630BD91EA5D
:1004A000030F1EBF0021002030BD5FEA545C05D160
:1004B0004000494128BF41F0004130BD14F580049F
:1004C0003CBF01F5801130BD01F0004545F0FE4113
:1004D00041F470014FF0000030BD7FEA645C1ABF48
:1004E000194610467FEA655C1CBF0B46024650EA7F
:1004F000013406BF52EA033591EA030F41F40021AB
:1005000030BD00BF90F0000F04BF0021704730B530
:100510004FF4806404F132044FF000054FF0000105
:1005200050E700BF90F0000F04BF0021704730B5C6
:100530004FF4806404F1320410F0004548BF40429B
:100540004FF000013EE700BF42004FEAE2014FEAF0
:1005500031014FEA02701FBF12F07F4393F07F4FCB
:1005600081F06051704732F07F4208BF704793F0CE
:100570007F4F04BF41F40021704730B54FF46074E1
:1005800001F0004521F000411CE700BF50EA0102E4
:1005900008BF704730B54FF000050AE050EA01028D
:1005A00008BF704730B511F0004502D5404261EBFD
:1005B00041014FF4806404F132045FEA915C3FF43E
:1005C000D8AE4FF003025FEADC0C18BF03325FEADB
:1005D000DC0C18BF033202EBDC02C2F1200300FA8C
:1005E00003FC20FA02F001FA03FE40EA0E0021FAB1
:1005F00002F11444BDE600BF70B54FF0FF0C4CF49F
:10060000E06C1CEA11541DBF1CEA135594EA0C0F50
:1006100095EA0C0F00F0DEF82C4481EA030621EA8B
:100620004C5123EA4C5350EA013518BF52EA0335C6
:1006300041F4801143F4801338D0A0FB02CE4FF078
:100640000005E1FB02E506F00042E0FB03E54FF0A8
:100650000006E1FB03569CF0000F18BF4EF0010EA0
:10066000A4F1FF04B6F5007F64F5407404D25FEA9C
:100670004E0E6D4146EB060642EAC62141EA55514F
:100680004FEAC52040EA5E504FEACE2EB4F1FD0C91
:1006900088BFBCF5E06F1ED8BEF1004F08BF5FEA0F
:1006A000500E50F1000041EB045170BD06F00046C1
:1006B00046EA010140EA020081EA0301B4EB5C046E
:1006C000C2BFD4EB0C0541EA045170BD41F4801166
:1006D0004FF0000E013C00F3AB8014F1360FDEBF8B
:1006E000002001F0004170BDC4F10004203C35DA67
:1006F0000C341BDC04F11404C4F1200500FA05F3EA
:1007000020FA04F001FA05F240EA020001F000428A
:1007100021F0004110EBD37021FA04F642EB060100
:100720005EEA430E08BF20EAD37070BDC4F10C042A
:10073000C4F1200500FA04F320FA05F001FA04F2EE
:1007400040EA020001F0004110EBD37041F10001DA
:100750005EEA430E08BF20EAD37070BDC4F12005E5
:1007600000FA05F24EEA020E20FA04F301FA05F24D
:1007700043EA020321FA04F001F0004121FA04F2F5
:1007800020EA020000EBD3705EEA430E08BF20EAC5
:10079000D37070BD94F0000F0FD101F000464000FF
:1007A00041EB010111F4801F08BF013CF7D041EA81
:1007B000060195F0000F18BF704703F00046520085
:1007C00043EB030313F4801F08BF013DF7D043EA56
:1007D0000603704794EA0C0F0CEA135518BF95EA0C
:1007E0000C0F0CD050EA410618BF52EA4306D1D193
:1007F00081EA030101F000414FF0000070BD50EAB2
:10080000410606BF1046194652EA430619D094EA3B
:100810000C0F02D150EA013613D195EA0C0F05D125
:1008200052EA03361CBF104619460AD181EA030179
:1008300001F0004141F0FE4141F470014FF0000031
:1008400070BD41F0FE4141F4780170BD70B54FF0CC
:10085000FF0C4CF4E06C1CEA11541DBF1CEA13554C
:1008600094EA0C0F95EA0C0F00F0A7F8A4EB05042E
:1008700081EA030E52EA03354FEA013100F0888025
:100880004FEA03334FF0805545EA131343EA1263EE
:100890004FEA022245EA111545EA10654FEA0026A3
:1008A0000EF000419D4208BF964244F1FD0404F55C
:1008B000407402D25B084FEA3202B61A65EB0305B8
:1008C0005B084FEA32024FF480104FF4002CB6EB75
:1008D000020E75EB030E22BFB61A754640EA0C00F5
:1008E0005B084FEA3202B6EB020E75EB030E22BF35
:1008F000B61A754640EA5C005B084FEA3202B6EB76
:10090000020E75EB030E22BFB61A754640EA9C0034
:100910005B084FEA3202B6EB020E75EB030E22BF04
:10092000B61A754640EADC0055EA060E18D04FEAC2
:10093000051545EA16754FEA06164FEAC30343EA62
:1009400052734FEAC2025FEA1C1CC0D111F4801F2F
:100950000BD141EA00014FF000004FF0004CB6E728
:1009600011F4801F04BF01430020B4F1FD0C88BFC7
:10097000BCF5E06F3FF6AFAEB5EB030C04BFB6EBD2
:10098000020C5FEA500C50F1000041EB045170BDC5
:100990000EF0004E4EEA113114EB5C04C2BFD4EBF2
:1009A0000C0541EA045170BD41F480114FF0000E76
:1009B000013C90E645EA060E8DE60CEA135594EAF2
:1009C0000C0F08BF95EA0C0F3FF43BAF94EA0C0FF5
:1009D0000AD150EA01347FF434AF95EA0C0F7FF46A
:1009E00025AF104619462CE795EA0C0F06D152EABE
:1009F00003353FF4FDAE1046194622E750EA4106A2
:100A000018BF52EA43067FF4C5AE50EA41047FF4B2
:100A10000DAF52EA43057FF4EBAE12E74FF0FF3C17
:100A200006E000BF4FF0010C02E000BF4FF0010CE8
:100A30004DF804CD4FEA410C7FEA6C5C4FEA430C61
:100A400018BF7FEA6C5C1BD001B050EA410C0CBFB0
:100A500052EA430C91EA030F02BF90EA020F002012
:100A6000704710F1000F91EA030F58BF994208BF79
:100A700090422CBFD8176FEAE37040F00100704736
:100A80004FEA410C7FEA6C5C02D150EA013C07D18D
:100A90004FEA430C7FEA6C5CD6D152EA033CD3D0D8
:100AA0005DF8040B704700BF8446104662468C46D2
:100AB0001946634600E000BF01B5FFF7B7FF002805
:100AC00048BF10F1000F01BD4DF808EDFFF7F4FF2E
:100AD0000CBF012000205DF808FB00BF4DF808EDB9
:100AE000FFF7EAFF34BF012000205DF808FB00BFDC
:100AF0004DF808EDFFF7E0FF94BF012000205DF8FE
:100B000008FB00BF4DF808EDFFF7CEFF94BF0120B2
:100B100000205DF808FB00BF4DF808EDFFF7C4FFAB
:100B200034BF012000205DF808FB00BF4FEA4102FE
:100B300012F5001215D211D56FF47873B3EB62522F
:100B400012D94FEAC12343F0004343EA505311F056
:100B5000004F23FA02F018BF404270474FF00000E8
:100B6000704750EA013005D111F0004008BF6FF026
:100B7000004070474FF00000704700BF4FEA41024D
:100B8000B2F1E04324BFB3F5001CDCF1FE5C0DD9EB
:100B900001F0004C4FEAC0024CEA5070B2F1004F35
:100BA00040EB830008BF20F00100704711F0804F38
:100BB00021D113F13872BCBF01F00040704741F4FD
:100BC00080114FEA5252C2F11802C2F1200C10FA01
:100BD0000CF320FA02F018BF40F001004FEAC123E5
:100BE0004FEAD32303FA0CFC40EA0C0023FA02F389
:100BF0004FEA4303CCE77FEA625307D150EA01335F
:100C00001EBF4FF0FE4040F44000704701F000402E
:100C100040F0FE4040F40000704700BF38B50F4B75
:100C20001B680BB9012038BD0D494FF47A72054697
:100C3000B2FBF3F30868B0FBF3F000F0AFFD04463D
:100C40000028EFD10F2DEDD8024629464FF0FF3096
:100C500000F04EFD034B20461D6038BD0000002013
:100C6000580000200400002000B5032083B000F0ED
:100C70002DFD0020FFF7D2FF18B1012003B05DF871
:100C800004FB019007F006FB019803B05DF804FB3C
:100C9000034A0449136809680B441360704700BF96
:100CA000A401002000000020014B1868704700BF1D
:100CB000A401002038B50446FFF7F6FF631C054683
:100CC00002D0044B1B681C44FFF7EEFF401BA04200
:100CD000FAD338BD0000002070B582B00023019324
:100CE000002800F09980456D0446002D00F08980B1
:100CF000226893689D0005D5936823F0204323F074
:100D00003F0393609368D80017D4634B91681B68C6
:100D100062489B0921F01041A0FB030321F03F0131
:100D20009B0941F0805191600193019B2BB1019B84
:100D3000013B0193019B002BF9D19368D90052D458
:100D4000636D43F010036365A36D43F00103A36576
:100D5000936813F0040F4FF00100636D4AD1DB0676
:100D600048D4636D23F4817343F002036365936891
:100D7000DE0707D44A4B4B499B688968CD0703F0CF
:100D800001036DD5D4E90215636B2B430B43657EDC
:100D900094F8201043EA4533012943EA014303D183
:100DA000616A013943EA4143A16A21B1E56A01F46C
:100DB000707129430B43D5683B4929400B43D360ED
:100DC000936859072BD593682369012B40D0136B87
:100DD00023F00F031363636D23F0030343F0010358
:100DE000636502B070BD936813F0040F4FF000000C
:100DF000636DB4D0636D012043F01003636502B0EE
:100E000070BD07F05FFA2268A565936884F85050BA
:100E10009D007FF577AF6FE7012002B070BD93684A
:100E20001B07D1D4D16894F83030267E94F838501E
:100E300021F480415B0021F0020143EA86330B4339
:100E4000012DD36016D0136923F001031361BBE7B2
:100E5000116BE36921F00F01013B0B431363BAE708
:100E6000002B8FD1114965688B6823F47C132B43C9
:100E70008B6087E7D4E90F31666CA56C0B43116971
:100E800043F00103334321F4FF612B4321F00401BC
:100E90000B43136198E700BF58000020632D3E0507
:100EA000000004500001045007C0F0FF000304508C
:100EB000704700BF08B5806AFFF7FAFF08BD00BFA2
:100EC000704700BF836A5A6D12F0500F10B55A6D0B
:100ED0001DD1196842F400725A650A6812F0080FB1
:100EE000CA681BD012F4406F0DD1CA6894040AD4AA
:100EF0005A6D22F480725A655A6DD10403D45A6D2A
:100F000042F001025A65184606F048FA10BDD206B2
:100F100007D4DB6CBDE810405B6B18479007F2D438
:100F2000E6E71846FFF7CCFF10BD00BF806A08B5A2
:100F3000436D43F040034365836D43F004038365D1
:100F4000FFF7BEFF08BD00BFF0B5034683B093F8BE
:100F500050200020012A019000F0DC801A6895687A
:100F6000012015F0040583F8500051D14C68052C80
:100F700040F2998004F01F071F26A409BE4004F028
:100F80000C05F44302F13006086856F805C0C0F3BA
:100F9000846004EA0C04B84020437051906846070E
:100FA00044D590680C689068C50712D4CE68BB48D9
:100FB000D2F8B050DFF808C306F01807F840C4F3C1
:100FC0001207204025EA070528436645C2F8B0000D
:100FD00071D0B3490C4227D0B249B34D8868AC42B6
:100FE00000F0E0761DD0B14DAC4200F09680B04DDF
:100FF000AC4219D110F4800016D1AE4CA24213D1EC
:101000008A6822F0E072324342F480028A6003E090
:101010005A6D42F020025A65002283F8502003B036
:10102000F0BD040240F19E800020F5E790680C6856
:101030000007B8D48D68C4F3045C0720E40D00FAFF
:101040000CF0B5F1004F04F004046FEA000002F167
:10105000140700F01681E65905FA0CF530400543F7
:10106000E551506920F0004050610F69D5680C6867
:10107000042F02F1600600F0C480486956F827E0AA
:10108000DFF840C2C5F3C1056D0004F0F84444F038
:101090000044A84020430EEA0C0C40EA0C0046F83D
:1010A00027000C687FE7023C032C00F2A580DFE8F4
:1010B00004F04A4F5442002F75D1A40E013404F0BD
:1010C0001F050126A40604F0F844AE40092D46EAA7
:1010D000040605EB450440F28C80A4F11E000005D7
:1010E00040F0007040EA06044FEAD45C0CF0040CB7
:1010F00002F11407C4F304545CF807508E6807200B
:10110000A04025EA000506FA04F42C434CF80740F9
:101110000C685EE7022003B0F0BD10F0807083D150
:10112000644CA24280D18A6822F0E072324342F0DD
:1011300080728A6070E74FF48070486000276FF01B
:101140001F0404251EE70C274F606FF4F83419E7DD
:1011500012274F606FF4F80414E718274F606FF000
:10116000F8540FE7534882427FF45EAF8A68524CCE
:10117000524822F0E072324342F400028A60226850
:101180009209A0FB0212920902EB42029200019224
:10119000019A002A3FF448AF019A013A0192019A5C
:1011A000002AF9D140E794FAA4F0B0FA80F00130B7
:1011B00000F01F00092800F2878094FAA4F6B6FA1E
:1011C00086F694FAA4F0B0FA80F0013001360125D9
:1011D00000F01F00B60605FA00F006F0F8460643D8
:1011E00094FAA4F5B5FA85F5013505F01F0505EB70
:1011F00045042405344377E706274F606FF4F8640D
:10120000C0E6106E106EC4F31205C0F38460002DAA
:101210003FD1C4F38467B84206D1106E20F000407D
:1012200010660C68C4F3120570687068C0F38460BF
:10123000002D6BD1C4F38465A84240F090807068A3
:1012400020F0004070600C68B068B068C4F312050C
:10125000C0F38460002D63D1C4F38465A84206F115
:101260000C0765D0F068F068C0F38460C4F384654F
:1012700085427FF498AE386820F0004038600C68F2
:1012800091E6E5592840E051506940F00040506136
:10129000EBE694FAA4F7B7FA87F7BCE7FFFF07007D
:1012A0000000088000030450000052C7000084CBF7
:1012B000010000800000045058000020632D3E050E
:1012C00000007F4000F0FF0394FAA4F6B6FA86F619
:1012D00094FAA4F0B0FA80F001300136012500F054
:1012E0001F00B60605FA00F006F0F846064394FA29
:1012F000A4F5B5FA85F5013505F01F0505EB4505A3
:10130000A5F11E00000540F00070EBE694FAA4F58C
:10131000B5FA85F5A84292D0B068B068C0F3846091
:1013200094FAA4F5B5FA85F5854206F10C0711D1BA
:10133000B06820F00040B0600C6838683868C4F3CA
:101340001205C0F38460002D90D094FAA4F5B5FA8C
:1013500085F58DE7F068F068C0F38460F5E7B06864
:10136000B068C0F3846079E703689A68D2070DD447
:1013700099681C4A11420BD0436D43F0100343653A
:10138000836D43F00103836501207047002070479F
:1013900070B59A68144E324042F001029A600446D9
:1013A000FFF782FC05460CE09A68D10704D49A68DE
:1013B000324042F001029A60FFF776FC401B02289F
:1013C00005D823681A68D207EED5002070BD636D7A
:1013D00043F010036365A36D43F00103A36501208F
:1013E00070BD00BF3F000080C0FFFF7F2DE9F041CE
:1013F0000368344CA6689B685B0753D490F8503060
:10140000012B05464ED006F01F060123092E80F859
:1014100050304AD840F22124F440E4431C4044D1E7
:1014200090460F46FFF7A0FF002847D16B6D296853
:10143000254A23F4706323F0010343F4807391423F
:101440006B6538D06B6D23F480136B656B6DE86C46
:101450001E4C1F4A13F480531CBFAB6D23F00603D0
:10146000AB651C4BC3621C23C0E90C420B604B688C
:10147000002243F0100385F850204B60CC6844F004
:10148000010443463A46CC60403100F001FA2A6834
:10149000936823F0004323F03F0343F00403936079
:1014A000BDE8F0810220BDE8F081002385F85030CE
:1014B0000120BDE8F081002EC4D0C7E785F8504078
:1014C000BDE8F0810003045000010450B50E00088F
:1014D0002D0F0008C50E000838B503689A689107FB
:1014E00002D59B68002038BD9A68D20726D59A6835
:1014F00002F00D02012A09D0436D43F01003436549
:10150000836D43F001038365012038BD9A6822F0A2
:10151000004222F03F0242F0020203219A60196069
:101520000446FFF7C1FB054604E0FFF7BDFB401B87
:10153000022805D823689B68DB07F6D4002038BD55
:10154000636D43F010036365A36D43F00103A3656E
:10155000012038BD30B590F8503083B00022012B07
:10156000019235D0012380F8503004460D46FFF734
:10157000B3FF636D20BB23F4885323F0020322687A
:101580001B4943F002036365936805F0804523F02F
:10159000404345F0004523F03F031D43956005E0BF
:1015A000019B01330193019B8B4214D89368002B5C
:1015B000F6DB636D23F0030343F00103636502E090
:1015C00043F010036365002384F8503003B030BD4E
:1015D000022003B030BD636D23F0120343F010030B
:1015E00000220120636584F8502003B030BD00BFA5
:1015F000FF87040090F85020012A47D0F0B5304A08
:1016000004680E68034694424FF0010083F85000CE
:1016100007D05A6D002142F020025A6583F850101D
:10162000F0BD284DAA68570709D5A2685A6D42F047
:1016300020025A650120002283F85020F0BDA068E6
:1016400010F00400F2D11EB3DFF87CE04F68DEF842
:10165000082093F830C022F460423A4342EA4C3208
:10166000CEF80820A268D40727D4A86810F001009B
:1016700021D1DEF808208C6822F4716121F00F017D
:1016800046EA04020A43CEF80820D4E70220704755
:101690000D4A916821F460419160A068A968C9076A
:1016A00000F0010007D430B9916821F4716121F094
:1016B0000F019160BFE70020BDE7AA68BBE700BF4C
:1016C000000004500001045000030450074AD3688E
:1016D0004FF6FF010B40000243F0BF6300F4E060EF
:1016E00043F400330343D360704700BF00ED00E0D4
:1016F000184BDB68C3F3022330B4C3F10705042D94
:1017000003F1040428BF0425062C19D9033B4FF02C
:10171000FF349C4022EA04044FF0FF32AA4021EA41
:10172000020101FA03F2224312010028D2B20ADBBD
:1017300000F1604000F5614080F8002330BC704744
:1017400000242346E8E7044B00F00F0003441A7618
:1017500030BC704700ED00E0FCEC00E0002807DB47
:1017600000F01F0101234009024A8B4042F820305B
:10177000704700BF00E100E0BFF34F8F0549064B03
:10178000CA6802F4E0621343CB60BFF34F8F00BF1F
:10179000FDE700BF00ED00E00400FA050138B0F1FC
:1017A000807F0ED2084B10B4084C5860F02084F8AB
:1017B00023000022072110469A6019605DF8044B4F
:1017C00070470120704700BF10E000E000ED00E02E
:1017D00000284BD00346264A0068904270B441D995
:1017E000244A2549254C1C640244A1FB021212091B
:1017F00092005A64D3E90242D3E9045122432A43B6
:101800009E69022583F825500A43DD690168324349
:101810002A431D6A21F4FF412A4321F070010A4343
:10182000B4F5804F026014D01C6C154D596C58688B
:10183000AC420CBF134C144C01F01C010F228A4027
:1018400000FA01F12068D24302402260206801437F
:10185000216000200122D86383F8240083F825202A
:1018600070BC7047094A0449054CBCE70120704729
:1018700007040240F8FBFDBFCDCCCCCC00040240F5
:1018800000000240A8000240A8040240F8FFFDBF8B
:10189000F0B490F82440012C34D090F82550012465
:1018A000EDB2A54280F8244026D10468D0F840C0AB
:1018B0000227002680F82570C663476C266807F06B
:1018C0001C0726F001062660BD408668CCF804504F
:1018D0006360036B102E0BBFA260A160E160E26049
:1018E0009BB1236843F00E032360236843F0010398
:1018F00023600020F0BC7047002380F82430F0BC47
:10190000022070470220F0BC7047236823F00403D4
:101910002360236843F00A032360E6E790F825205C
:10192000022A03D00422C263012070470168426C7E
:1019300070B50C68066C856B24F00E040C600C68A6
:1019400024F001040C6002F01C02012101FA02F2F1
:101950000024726080F8251080F8244015B1A84753
:10196000204670BD284670BD70B4D0E910630422D3
:101970003168056803F01C039A400A422C680AD0BB
:1019800014F0040F07D02B689B0637D5036B7260E9
:10199000CBB170BC184702229A400A4215D014F00D
:1019A000020F12D02B68990606D42B68012123F070
:1019B0000A032B6080F82510C36A7260002280F849
:1019C0002420002BE5D170BC704708229A400A42BF
:1019D000F9D02207F7D52A68416B22F00E022A605F
:1019E000012202FA03F300247360C26380F82440EA
:1019F00080F825200029E6D070BC08472B6823F02A
:101A000004032B60C2E700BF90F82500704700BFB9
:101A1000064B5A69002A01DB002070470449054A39
:101A200099609A605869C00F704700BF002002405B
:101A300023016745AB89EFCD034A536943F0004367
:101A400053610020704700BF0020024070B505467A
:101A5000FFF72AF9104C064601E06A1C0ED12369F3
:101A6000DB03FAD423690D4A13400ED1206910F02C
:101A7000010002D001221846226170BDFFF714F95F
:101A8000801BA842EBD3032070BD05494A681A4366
:101A90004A600120236170BD00200240FAC30200A9
:101AA000080000202DE9F843344E96F800C0BCF140
:101AB000010F35D09846074601234CF250301446AA
:101AC0000D463370FFF7C2FF814620B1002333700B
:101AD0004846BDE8F8832A4A7060136813F48063AF
:101AE00023D01368022123F4806313603177FFB998
:101AF000234A536943F0010353612C60BFF36F8F96
:101B00004CF25030C5F80480FFF7A0FF6FF00101E0
:101B100081461B4A53690B40536100F033F8D5E707
:101B20004FF002094846BDE8F8833377002FDFD035
:101B30007B1E012B05D94CF25030FFF787FF814601
:101B4000EBE70F494B6943F4802322464B61EFF3E7
:101B5000108072B6291B04F5807413685350043248
:101B60009442FAD180F31088022F4CF25030E4D125
:101B7000FFF76CFF6FF480218146CAE70800002060
:101B80000020024013490B7FDBB203F0FD02012A63
:101B90000CD1114A106840F400601060106820F405
:101BA00000601060106840F400701060023B012B70
:101BB0000CD8094B1A6842F480521A601A6822F451
:101BC00080521A601A6842F480621A6000230B7710
:101BD000704700BF08000020002002402DE9F047B8
:101BE000424E3378012B55D0054601244CF250303B
:101BF00088463470FFF72AFF074620B10023337070
:101C00003846BDE8F0873A4B70601A6812F4007FDE
:101C10001A6843D1520567D51A68022122F48062FE
:101C20001A6031772B68012B45D04FF0FF33C8F88D
:101C30000030D5E902934B44994528D22C4C4FEA09
:101C4000C90A06E0D5E9023209F1010913444B45FE
:101C50001DD963690AF4FF6223F4FC7313436361C3
:101C6000636943F002036361636943F48033636132
:101C70004CF25030FFF7EAFE636923F4FD730AF17A
:101C8000080A63610028DDD0C8F800900746FFF716
:101C900079FFB3E702273846BDE8F08722F40072E7
:101CA0001A601A6851051DD51A68032122F4806252
:101CB0001A603177B6E76B68DB0704D50C4A5369C5
:101CC00043F0040353610A4C636943F48033636156
:101CD0004CF25030FFF7BAFE636923F00403074665
:101CE0006361D4E734779DE730779BE708000020F5
:101CF000002002402DE9F04FD1F800E083B0BEF1A2
:101D0000000F7AD0DFF8789188460026012303FA85
:101D100006F212EA0E076CD0D8E9011421F0100B7C
:101D200006FA03FC0BF1FF35032303FA0CFA012D2D
:101D30006FEA0A0A04FA0CF462D9C36803EA0A03D8
:101D40001C43C460026801F0030302EA0A0A03FAB2
:101D50000CF343EA0A03CD0003604AD5444A136EEC
:101D600043F001031366136E26F0030202F1804272
:101D700003F0010302F58032019306F00303019C96
:101D800094689B000F259D40B0F1904F24EA050414
:101D90000DD0384DA84265D0374DA8425DD0374DA3
:101DA000A8420CBF0325072505FA03F31C439460E2
:101DB000D9F80030FA43CC0354BF13403B43C9F871
:101DC0000030D9F804308D0354BF13403B43C9F8A9
:101DD0000430D9F80830CC0254BF13403B43C9F853
:101DE0000830D9F80C30890254BF13403B43C9F87E
:101DF0000C3001363EFA06F388D103B0BDE8F08F0F
:101E00008368D8F80C5003EA0A0305FA0CF51D4361
:101E100085604368C1F3001523EA02032A46B240F5
:101E20001A434260C36803EA0A031C43BBF1020F72
:101E3000C46087D1F40800EB840406F00703256A28
:101E4000D8F810209B004FF00F0B0BFA03FB25EA8C
:101E50000B059A402A43226274E7022505FA03F330
:101E60001C43A4E7012505FA03F31C439FE700BFC9
:101E7000001002400004004800080048000C004820
:101E8000000401400369194214BF0120002070477B
:101E90000AB9816270478161704700BF044A516985
:101EA000014200D1704708B5506105F015FA08BD30
:101EB0000004014070B505460C461646286801E04E
:101EC000631C20D183699906FAD510222023C261B0
:101ED000C36183699A0744BF002383628369DB0778
:101EE0001CD54368104A134043606B6C202143F0BB
:101EF000040300226B6485F8402085F8411001201E
:101F000085F8422070BDFEF7CFFE801B844201D3CE
:101F1000002CD3D16B6C20210B43EAE7836943F09B
:101F200001038361DDE700BF00E800FE70B50546F0
:101F30000C46164608E09A69900616D4FEF7B4FEE1
:101F4000801BA04226D82CB32B689A6952072CD448
:101F50009A69D206EFD5324621462846FFF7AAFFF6
:101F600028BB2B689A699006E8D59A69510701D574
:101F70002A8DD2B92024DC6159680E4A1140002212
:101F8000596001206A6485F8402085F8414085F851
:101F9000422070BD6B6C2022134300216B6485F8D6
:101FA000401085F84120012070BD002070BD012047
:101FB00070BD00BF00E800FE70B505460C46164631
:101FC00001E0611C11D12B689A6992070BD49B69BF
:101FD000D806F6D5324621462846FFF76BFF002883
:101FE000EFD0012070BD002070BDFEF75DFE801BAC
:101FF000A04201D8002CE6D16B6C202100220B43BB
:102000006B6485F8402085F84110012085F8422056
:1020100070BD00BFF8B505460C4616460BE09B693F
:10202000DB0602D5FFF746FFD8B9FEF73DFE801B61
:10203000A04209D844B12B689F69BF0632462146A9
:102040002846ECD50020F8BD6B6C202100220B4304
:102050006B6485F8402085F84110012085F8422006
:10206000F8BD0120F8BD00BF2DE9F04180460F46C4
:1020700016461D46D8F8004001E06B1C0AD1A06945
:1020800037EA00030CBF01200020B042F5D0002049
:10209000BDE8F081FEF708FE069BC01AA84201D8F1
:1020A000002DE7D1D8F84430202100220B43C8F896
:1020B000443088F8402088F84110012088F84220F8
:1020C000E6E700BF00284ED090F8413070B503F02D
:1020D000FF020446002B41D02422211D84F8412018
:1020E000236826C9186821F0706120F0010018608B
:1020F00019619968012D21F4004199602AD042F4B8
:102100000442022D9A6004BF4FF400625A6059687D
:10211000A569D4E9042641F0007141F400415960F9
:102120003243D868E16942EA0522256A20F400407A
:102130002943D860DA6019601968002241F0010172
:10214000202519601046626484F84150226384F8A7
:10215000422070BD42F400429A60D8E780F84020E7
:1021600006F062F9B8E70120704700BF2DE9F0439F
:1021700090F84140202C83B06ED190F84040012C63
:102180006AD04FF0010980F84090984617460E46F5
:102190000446FEF789FD4A460546009019234FF490
:1021A00000412046FFF760FF002859D1212384F821
:1021B0004130102384F842306064A4F82A80638D93
:1021C0006762FF2B6063C6F30906226858D953681B
:1021D0003C483D49034031430B43FF212185536077
:1021E00046F0FF77DFF8E88047F48037638D0A997F
:1021F0009BB22A462046002B52D0FFF7DDFE002876
:102200002ED1616A236811F8012B9A62638D228DA9
:102210006162013B9BB26385638D013A92B29BB2CE
:102220002285002BE2D0002AE0D10A9B0095802174
:102230002046FFF719FF4FF0FF0C46F0007378B906
:10224000618D226861450FD95368A4F828C003EA5C
:1022500008033B435360C9E7022003B0BDE8F083A5
:10226000012003B0BDE8F083618D506889B200EAB7
:1022700008000343C8B243EA004321855360B5E731
:10228000618D104F536846F0024089B240F400500F
:102290003B400343C8B243EA0043218553609FE7B4
:1022A000FFF7B8FE0028DBD12368084D2021D96153
:1022B0005A682A405A6084F8411084F8400084F833
:1022C0004200CAE7009800FC0020FF8100E800FE01
:1022D000009C00FC2DE9F04390F84140202C83B095
:1022E0006FD190F84040012C6BD04FF0010980F87D
:1022F0004090984617460E460446FEF7D5FC4A46DF
:102300000546009019234FF400412046FFF7ACFE2C
:1023100000285AD1222384F84130102384F8423017
:102320006064A4F82A80638D6762FF2B6063C6F344
:102330000906226859D953683D483E490340314354
:102340000B43FF212185536046F0FF77DFF8EC80D7
:1023500047F48037638D0A999BB22A462046002BAA
:1023600053D0FFF7E3FD00282FD12268636A526A39
:102370001A70618D228D636A013989B26185618D20
:10238000013A92B2013389B2228563620029E1D019
:10239000002ADFD10A9B009580212046FFF764FECA
:1023A0004FF0FF0C46F0007378B9618D22686145EB
:1023B0000FD95368A4F828C003EA08033B435360CD
:1023C000C8E7022003B0BDE8F083012003B0BDE8F8
:1023D000F083618D506889B200EA08000343C8B2F7
:1023E00043EA004321855360B4E7618D104F536881
:1023F00046F0024089B240F410503B400343C8B25B
:1024000043EA0043218553609EE7FFF703FE00285F
:10241000DBD12368084D2021D9615A682A405A60CF
:1024200084F8411084F8400084F84200CAE700BFF5
:10243000009800FC0024FF8100E800FE009C00FCE6
:102440002DE9F04784B00024039490F84150202DEA
:102450005DD1D0F800C0DCF8186016F4004656D103
:1024600090F84040012C52D0C1F3090747F00079A1
:102470001C4690460123242280F84120054649F459
:10248000005947F4205780F840304664EA68012A32
:102490000CBF4A46BAB2CCF80420FEF705FC2B6804
:1024A00099699A690646880602F0100211D40AB1A9
:1024B0000FE071B9611C06D0FEF7F6FB801BA0424D
:1024C00029D844B32B689A699969920601F01001E2
:1024D000EFD59A69009612F0100223463AD00022F6
:1024E00020212846FFF7C0FDF8B92B6810224FF0D5
:1024F000200ADA61C3F81CA0039A424519D0039A56
:1025000001320392039A424505D29C46BEE702205F
:1025100004B0BDE8F087202385F841306B6C0022C1
:1025200043F020036B6485F84020012004B0BDE82F
:10253000F087596841F4804159600246234600966D
:1025400051462846FFF790FD0028EED12B68C3F8CE
:102550001CA0D4E720212846FFF786FD0028E4D1FF
:102560002A682023D36185F8413085F84000CFE701
:10257000036810B4446B99691A681CB123465DF86E
:10258000044B18475DF8044B704700BF704700BF0D
:10259000704700BF034600201A68116810B583F821
:1025A000420048040CD5116821F48041116093F871
:1025B000411029290ED093F841102A2923D010BDAB
:1025C0000904F4D5116821F40041116093F8411019
:1025D0002929F0D12820212183F84100196393F89B
:1025E0004100116800F02800282814BF6FF0F200A5
:1025F0006FF04200014000241160184683F840400B
:10260000FFF7C4FF10BD2820222183F84100196381
:1026100093F84100116800F02800282814BF6FF0DB
:10262000F4006FF04400014000241160184683F864
:102630004040FFF7ADFF10BD704700BFF8B504681C
:10264000C368A169A269A668E768120C022BC1F3EE
:10265000004102F0FE020DD1C6F3090682EAD6134C
:1026600013F0060310D1826C01328264826C022A5C
:1026700016D0F8BD2368002623F0B803236080F845
:102680004060FFF7D9FFF8BD2368002623F0B803A8
:10269000236007F0FE0280F84060FFF7CDFFF8BD31
:1026A000082783643246E76180F84030FFF7C4FFB3
:1026B000F8BD00BF704700BF38B51A4AC262034672
:1026C0002022002049071863586383F841201A68C4
:1026D00083F8420012D5596A526A0A705A6A198DF3
:1026E00001325A62D9B1588D1A68013880B25885C2
:1026F000586C013940F004001985586493F8411072
:1027000093F841101168102521F0FE01002411609A
:102710001846D56183F84040FFF7CCFF38BD1A68F2
:10272000ECE700BF0000FFFF704700BF704700BF2D
:1027300090F84120602A08B506D00022026380F894
:102740004020FFF7F1FF08BD0022202180F8411052
:1027500080F840200263FFF7E9FF08BD10B504468A
:1027600000233F4894F8412084F84230E0626385BA
:10277000606C2368283A01436164022A94F841207E
:1027800029D894F84110374802F0280201F02801B6
:10279000282A0CBF4622F622282908BFD1431A68EE
:1027A00018BF6FF0F6010A4028211A6084F8411022
:1027B0006063A06B226B18B1112A1CD0212A1AD099
:1027C000E06B18B1122A2BD0222A29D02046BDE86E
:1027D0001040FFF7ADBF94F841201A6822F0FE02C6
:1027E0001A6094F84120602A1CBF202284F84120FE
:1027F00000226263DDE71A6851042AD4FFF704F966
:102800000128E3D0A06B184B8363002384F8403089
:10281000FFF784F810B3A06BBDE81040836B184736
:102820001A68120403D51A6822F400421A60FFF7EE
:10283000EBF80128CAD0E06B0B4B8363002384F8CC
:102840004030FFF76BF848B1E06BBDE81040836B98
:1028500018471A6822F480421A60CFE710BD00BF03
:102860000000FFFFB12900086D2B000870B5036858
:102870000446186894F8412002F0F7022025212A26
:10288000DD610D464FD0222A74D05968464E41F47E
:10289000004159605A6832405A609A69910744BFB2
:1028A00000229A629A69D20703D49A6942F001021F
:1028B0009A6146043FD51A68A16B22F480421A60DF
:1028C00019B10A68526892B262856A070AD5626ACB
:1028D0005B6A1370636A228D013325F0040563621D
:1028E000002A40D1638D9BB21BB1636C43F004039B
:1028F0006364002384F84230666C6363002E41D128
:10290000E36A2A4DAB4220D194F8413084F840600C
:10291000222B4FF0200384F84130204626633FD01D
:10292000FFF734FE70BD94F84110196821F0FA01E8
:1029300019602263A9E70104C7D51A68E16B22F484
:1029400000421A600029BCD1BFE72046FFF722FEF3
:102950002023E56284F8406084F8413020462663F5
:10296000FFF7A8FE70BD638D013B013A9BB2228543
:102970006385B7E794F84110196821F0FC011960EC
:10298000226382E7616C2046FFF7E8FE94F841304D
:10299000282BC7D129462046BDE87040FFF78CBEE2
:1029A000FFF7F6FD70BD00BF00E800FE0000FFFF6E
:1029B000F8B590F84030C76A012B78D0164601234D
:1029C0008A0604460D4680F8403001D5B3065AD435
:1029D000EA0615D5F30613D5638D9BB2002B57D1AC
:1029E00094F84130282B78D094F841202368292A84
:1029F0004FF01002DA6160D0002084F84000F8BD8A
:102A00006A070DD4280729D5310727D594F8413016
:102A100003F02803282B68D023680822DA61EBE74B
:102A20007307EFD5638D9BB26BB12268636A526AFC
:102A30001A70638D616A228D013B9BB20131013AAC
:102A4000638561622285638D9BB2002BD4D117F51B
:102A5000803FD1D02046FFF79DFDCDE7AA07CBD51B
:102A6000B307C9D5638D9BB21BB3616A236811F8A4
:102A7000012B9A62638D228D6162013B9BB2013A08
:102A800063852285B8E7FFF7F1FEEA06B8D5A1E72E
:102A900023681022DA61636C43F00403636437F047
:102AA0008073A9D1616C2046FFF758FEA4E702208D
:102AB000F8BD37F08073CDD09EE717F5803F9BD0EF
:102AC0009A69900744BF00229A629A69D107C1D4DB
:102AD0009A6942F001029A61BCE7B7F1007F83D1A5
:102AE00029462046FFF7E8FD86E72046FFF7A6FDCA
:102AF00082E700BF0268936913F4807F30B4C3F3A8
:102B000080211468C3F3402317D025061FD5446CD9
:102B10004FF4807544F001044464D56131B1416CD7
:102B20004FF4806441F008014164D461ABB9416C59
:102B300011F00B0F08D130BC704751B12106EED413
:102B4000416C11F00B0FF6D030BCFFF707BE002927
:102B5000EDD1002BEBD02306E9D5436C4FF4007187
:102B600043F002034364D161E1E700BF806A836BF5
:102B70000BB100229A63C36B0BB100229A63FFF77B
:102B8000D7BD00BF90F84130DBB2202B20D190F8A8
:102B90004020012A1CD010B40268242480F841404F
:102BA000146824F001041460146824F48054146040
:102BB0001468214311601168002441F00101116083
:102BC00080F8404080F8413020465DF8044B704763
:102BD00002221046704700BF90F84130DBB2202B34
:102BE0001FD190F84020012A1BD010B40268242481
:102BF00080F84140146824F001041460146824F43F
:102C0000706444EA012111601168002441F001015F
:102C1000116080F8404080F8413020465DF8044B58
:102C20007047022210467047024B186800F4C060DB
:102C3000704700BF007000401E4A1368B0F5007F67
:102C400003F4C0630AD0B3F5806F2ED0136823F469
:102C5000C06343F48063136000207047B3F5007FC6
:102C600023D01168144B154821F4C06141F4007160
:102C700010B411601C685169322303FB04F3A0FBFC
:102C800003039B0C480503F1010306D500E023B1C3
:102C90005169490503F1FF33F9D4064B5B695B05C4
:102CA00005D400205DF8044B7047002070470320D6
:102CB000F8E700BF007000405800002083DE1B438F
:102CC00030B5204DAB6DDB0083B004461AD5FFF75D
:102CD000ABFFB0F5007F27D0802C2CD82FD0A4F1EB
:102CE0007004B4FA84F4640917490B6823F00703ED
:102CF00023430B60086800F00700001B18BF012089
:102D000003B030BDAB6D43F08053AB65AB6D03F0EA
:102D100080530193019BFFF787FFAB6DB0F5007FF8
:102D200023F08053AB65D7D1802C06D9A02C8CBF63
:102D300002240124D8E70324D6E70024D4E70224A0
:102D4000D2E700BF0010024000200240284A9368EA
:102D5000D26813F00C0308D00C2B38D0042B34D0DD
:102D6000082B244818BF00207047214A1168090722
:102D700054BFD2F8942012681F4954BFC2F30322F3
:102D8000C2F3031251F8220003B30C2B2DD1184BC0
:102D9000DB6803F00303022B25D0164A032B08BF80
:102DA0001046134BD968DA68DB68C3F3416301331B
:102DB000C1F30211C2F3062200FB02F201315800F6
:102DC000B2FBF1F3B3FBF0F070470C48704702F030
:102DD0000302012AC9D0064BDB6803F00303022B70
:102DE0004FF00000D9D10548DBE70020704700BF55
:102DF0000010024000127A0028BA00080024F400F3
:102E0000002800F0CA812DE9F043A44A03689568C0
:102E1000D668DF0683B0044605F00C0506F003060D
:102E20002ED5002D00F041810C2D00F03B81E3698F
:102E30009A4F002B00F09D813B6843F001033B60FB
:102E4000FDF732FF804606E0FDF72EFFA0EB0800FD
:102E5000022800F29E813B689A07F5D53B6843F053
:102E600008033B603B68626A23F0F00313433B6056
:102E70007B68226A23F47F4343EA02237B60236852
:102E8000D80700F1E280980723D5042D00F0618176
:102E90000C2D00F05B81E368804E002B00F09381E5
:102EA000336843F480733360FDF7FEFE074605E0A8
:102EB000FDF7FAFEC01B022800F26B8133685A0549
:102EC000F6D57368226923F0FE4343EA0263736018
:102ED00023681E0731D56369704E002B00F087818F
:102EE000D6F89420A16902F0100081420FD002F0C0
:102EF0000300022800F01A81D00700F12D82674AF2
:102F0000D2F8943023F010030B43C2F89430634E90
:102F1000D6F8943043F00103C6F89430FDF7C4FEB0
:102F2000074605E0FDF7C0FEC01B112800F2318105
:102F3000D6F894309A07F5D523685F0746D5574BE6
:102F40009A6DD60000F151819A6D42F080529A65D7
:102F50009B6D03F080530193019B0127504E326813
:102F6000D00540F11F82A368D90740F16B814B4A1D
:102F7000D2F8901003F0800021F080010143C2F8E4
:102F8000901013F0040FD2F890301EBF43F00403EA
:102F9000C2F89030D2F8903043F00103C2F890307C
:102FA000FDF782FE3D4E814641F2883806E0FDF78E
:102FB0007BFEA0EB0900404500F2EB80D6F8903094
:102FC0009B07F4D5002F40F0E7812368990618D5B8
:102FD000A36A324E002B00F05F81D6F8983043F0A0
:102FE0000103C6F89830FDF75FFE074605E0FDF7E0
:102FF0005BFEC01B022800F2CC80D6F898309A07FE
:10300000F5D5E36AFBB1022B00F05B810C2D00F0DB
:103010008D80224C236823F080732360E36823F0C3
:103020000303E360E36823F08873E360FDF73CFE8D
:10303000054605E0FDF738FE401B022800F2A98096
:1030400023689B01F6D4002071E0082D74D00C2D6C
:1030500070D06368B3F5803F00F0A180B3F5A02F76
:1030600000F0B8810D4F3A6822F480323A603A6835
:1030700022F480223A60002B40F09680FDF714FE87
:10308000804606E0FDF710FEA0EB0800642800F281
:1030900080803B689B03F5D42368F4E6001002406F
:1030A00000700040012E7FF4C2AEB04B1B68980741
:1030B00039D4AE4B606A1A68110756BFD3F8943002
:1030C0001B681B0903F0F003984200F2A480A74B91
:1030D0001A6842F008021A601A6822F0F0020243ED
:1030E0001A605A68216A22F47F4242EA01225A6039
:1030F000002D00F06981FFF729FE9C4B9C4A9B68DC
:103100009C49C3F30313D35C9B4A03F01F0320FACB
:1031100003F308681360FDF781FD40B92368D80701
:103120007FF5B1AE91E7E369002BC2D1012003B076
:10313000BDE8F083032E8CD18C4A126891037FF591
:10314000A2AE6268002A7FF49EAEEFE7022E7FF403
:10315000A2AE864A1268510502D5E268002AE5D07F
:10316000824920694A6822F0FE4242EA00624A60CF
:10317000AFE63B6823F001033B60FDF795FD804619
:103180003B689B07CAD5FDF78FFDA0EB080002281E
:10319000F6D9032003B0BDE8F08301207047734ADD
:1031A000136843F480331360FDF77EFD6F4F804654
:1031B00005E0FDF779FDA0EB08006428E9D83B683D
:1031C0009A03F6D568E7336823F480733360FDF71C
:1031D0006BFD074604E0FDF767FDC01B0228D8D849
:1031E00033685B05F7D4236873E60027B6E6D6F8A4
:1031F000943023F00103C6F89430FDF755FD0746DF
:1032000004E0FDF751FDC01B1128C2D8D6F8943058
:103210009B07F6D490E6FFF753FD002886D1534B69
:103220001A6842F008021A601A68616A22F0F00215
:103230000A431A605A68216A22F47F4242EA012254
:103240005A6058E7494ED6F8902022F00102C6F89D
:103250009020D6F8902022F00402C6F89020002B8F
:103260007FF49EAEFDF720FD41F28838814605E0EF
:10327000FDF71AFDA0EB090040458AD8D6F890303A
:103280009807F5D4D6F8903023F08003C6F8903034
:10329000002F3FF49AAE7FE0D6F8983023F0010378
:1032A000C6F89830FDF700FD074605E0FDF7FCFC89
:1032B000C01B02283FF66DAFD6F898309B07F5D4B7
:1032C0009FE62A4A216BD36803F00300884200F08E
:1032D0008E800C2D3FF42AAF244D2B6823F0807391
:1032E0002B60FDF7E1FC064605E0FDF7DDFC801BE9
:1032F00002283FF64EAF2B689F01F6D4EA681F4BB9
:10330000276BA66B606B1340D4E90F123B43013867
:1033100043EA0623490843EA00130139520843EA05
:103320004153013A43EA4263EB602B680F4C43F090
:1033300080732B60EB6843F08073EB60FDF7B4FCA7
:10334000054605E0FDF7B0FC401B02283FF621AF23
:1033500023689801F6D576E6D6F8942022F001028B
:10336000C6F89420FDF7A0FC07460FE000100240CD
:1033700018BA000804000020580000208C809FF933
:10338000FDF792FCC01B11283FF603AFD6F894302E
:103390009907F5D4A169B2E5334A936D23F08053C0
:1033A000936512E6326842F480723260FDF77CFC6D
:1033B00080463368DA053FF5D6ADFDF775FCA0EB26
:1033C00008000228F5D9E4E6FFF77AFC00283FF46C
:1033D00092AEABE603F18043A3F53C331A6842F4A6
:1033E00080221A601A6842F480321A60DCE6606B50
:1033F00003F070010138B1EB001F7FF46AAFA06BDE
:1034000003F4FE41B1EB002F7FF463AFE16B490899
:10341000013903F4C000B0EB415F7FF45AAF216C77
:10342000490803F0C0630139B3EB416F7FF451AF3A
:10343000136899013FF507AE136843F0807313607A
:10344000D36843F08073D3601446FDF72DFC054626
:1034500005E0FDF729FC401B02283FF69AAE2368E1
:103460009A01F6D5EFE500BF0010024078B1464A58
:10347000136803F007038B420BD2136823F0070392
:103480000B431360136803F007038B4201D0012044
:10349000704703682DE9F0410D46D907044624D54D
:1034A00043683A4A032B126862D0022B65D0002B86
:1034B00066D1960732D5354EB26822F00302134327
:1034C000B360FDF7F1FB41F28837804605E0FDF778
:1034D000EBFBA0EB0800B8424DD8B368626803F07C
:1034E0000C03B3EB820FF2D12368990706D5274965
:1034F000A0688A6822F0F00202438A6022490A68C2
:1035000002F00702AA420CD90A6822F007022A43F5
:103510000A600A6802F00702AA4202D00120BDE850
:10352000F0815A0706D51949E0688A6822F4E062FA
:1035300002438A601B0707D5144A2169936823F464
:10354000605343EAC1039360FFF700FC0F4B104C3C
:103550009B681049104AC3F30313E35C03F01F0395
:1035600020FA03F3BDE8F04108681360FDF756BB8D
:103570009201A0D4D2E70320D1E797039BD4CDE7F3
:103580005005CBD597E700BF002002400010024055
:1035900018BA000804000020580000202DE9F0416E
:1035A0000368044613F4003082B057D0794B9A6D0B
:1035B000D00040F1D5800027774D2B6843F480730D
:1035C0002B60FDF771FB064605E0FDF76DFB801BE8
:1035D000022800F2D7802B68D905F6D56D4B216BF8
:1035E000D3F8902012F4407228D08A4226D0D3F823
:1035F0009000D3F8902042F48032C3F89020D3F8A2
:10360000902022F48032C3F8902020F44075C20745
:10361000C3F8905012D51D46FDF746FB41F288369F
:10362000804606E0FDF740FBA0EB0800B04200F248
:10363000A980D5F890309B07F4D5216B554AD2F874
:10364000903023F440730B43C2F89030002027B130
:10365000504A936D23F0805393652368DF0708D5A4
:103660004C496568D1F8882022F003022A43C1F84A
:1036700088209E0708D54749A568D1F8882022F000
:103680000C022A43C1F888205D0708D54149E56846
:10369000D1F8882022F030022A43C1F88820990608
:1036A00008D53C492569D1F8882022F440622A4394
:1036B000C1F888209A0508D53649256AD1F88820AE
:1036C00022F440222A43C1F888205F0508D53149F9
:1036D000656AD1F8882022F440122A43C1F8882074
:1036E0005E0608D52B496569D1F8882022F440523E
:1036F0002A43C1F888201D0608D52649A569D1F8B6
:10370000882022F440422A43C1F88820D90508D5F0
:103710002049E569D1F8882022F440322A43C1F8D3
:1037200088209A040BD51B49A56AD1F8882022F07D
:1037300040622A43B5F1006FC1F8882024D05B03B2
:103740000BD5144AE16AD2F8883023F040630B436A
:10375000B1F1006FC2F888300DD002B0BDE8F08141
:103760009A6D42F080529A659B6D03F080530193ED
:10377000019B012720E7D36843F48013D36002B094
:10378000BDE8F081032062E7CA6842F48012CA6093
:10379000D5E700BF0010024000700040D0E90031C2
:1037A0005A68B1F5827F22F0E0025A6013D0826A33
:1037B000B2F5005F07D11A6822F400521A601A6845
:1037C00042F400521A600122002380F85D2080F844
:1037D0005C30032070478268B2F5004F02D0B2F52A
:1037E000806FE4D11A6822F040021A60DFE700BF60
:1037F00070B505460C4616462B6801E0621C04D1E4
:10380000986810F08000F9D170BDFDF74DFA801B6B
:103810008442F1D82846BDE87040FFF7BFBF00BF23
:10382000F8B506460C4615461F46316805E0B4F566
:10383000C06F08BF0A7B6B1C03D188682040F6D19B
:10384000F8BDFDF731FAC01B8542EED83046BDE821
:10385000F840FFF7A3BF00BF70B513460D461646EC
:103860000A464FF4C0510446FFF7DAFF70B93246FA
:1038700029462046FFF7BCFF40B933462A464FF49D
:10388000C0612046FFF7CCFF00B970BD236E43F046
:1038900020032366032070BD002851D0F0B590F8B6
:1038A0005D30002283B0044603F0FF018262002BEA
:1038B00041D00223216884F85D300B68E668226BF2
:1038C00023F04003B6F5E06F0B602DD9B6F5706FAD
:1038D00038D1A06A002A3AD04FF0000CA268636881
:1038E00027691343626A019262693B431343D4E937
:1038F0000675019A3243266A2B43656B334307F4FE
:1039000000763F0C07F004071543334300223D4384
:10391000034345EA0C05012610460B604D60226604
:1039200084F85D6003B0F0BD14D00020A062AAB19D
:103930004FF4805CD2E780F85C1004F0BDFDB8E77E
:10394000012070470020A062002AC5D11046022342
:103950002363C1E7A06A002AEAD102460123104688
:1039600023634FF4805CB9E72DE9F04190F85C40A7
:10397000012C82B074D01D46012380F85C300446CF
:1039800017468846FDF790F9064694F85D00C0B2E8
:10399000012809D002200122002384F85D2084F848
:1039A0005C3002B0BDE8F081B8F1000FF3D0002F19
:1039B000F1D0A268C4F8388000230321B2F5004F8B
:1039C00084F85D1023642366A4F84430C4E91333FB
:1039D000E787A787A4F84630236803D11A6842F422
:1039E00080421A601A68520603D41A6842F04002F4
:1039F0001A60E2686168B2F5E06F35D800296BD0D3
:103A0000012F69D0E38F9BB2A3B123689A68920714
:103A100050D5E08FA16B01280A4653D932F8021B1A
:103A2000D960E38FA263023B9BB2E387E38F9BB233
:103A3000002BEAD1324629462046FFF70DFF08B198
:103A400020232366A36833B922680193D3680193C6
:103A500093680193019B206E003018BF01209AE704
:103A6000022002B0BDE8F081002942D0012F40D0F1
:103A7000E38F9BB2002BDDD023689A68900710D5A6
:103A8000A26B32F8021BD960E38FA263013B9BB2A9
:103A9000E387E38F9BB2002BCCD023689A68900712
:103AA000EED4FDF701F9801BA842E1D3691CDFD0F9
:103AB000032070E7FDF7F8F8801BA842A2D36B1C27
:103AC000A0D0F5E70A781A73E38FA26B013B9BB293
:103AD0000132E387A26395E7E28F012A13D94146B9
:103AE00031F8022BDA60E38FA163023B9BB2E387DC
:103AF00088E7414631F8022BDA60E38FA163013B8E
:103B00009BB2E387B4E798F80020DCE7F0B4046ADE
:103B10008F680E68164D24F001040462036A44683D
:103B2000826922F4803223F0020322F07302A84259
:103B300043EA070342EA060207D005F5A055A8426A
:103B400003D005F58065A8420BD1CD6823F00803AA
:103B50002B43D1E9055624F44074354323F0040384
:103B60002C43496844608261F0BC41630362704742
:103B7000002C0140F0B4046A8F680E68174D24F4DD
:103B800080740462026A4468C36923F4803322F4B7
:103B9000007223F07303A84242EA072243EA0603B5
:103BA00013D00F4DA84202D00E4DA84206D1D1E944
:103BB000055624F44054354344EA051449684460EA
:103BC000C361F0BCC16302627047CD6822F4006239
:103BD00042EA052222F48062E9E700BF002C01409E
:103BE0000040014000440140F0B4046A8F680E6850
:103BF000134D24F480540462026A4468C36923F0BC
:103C0000807322F4005223F4E643A84242EA0732CA
:103C100043EA062307D005F5A055A84203D005F5D1
:103C20008065A84204D14D6924F4804444EA851497
:103C300049684460C361F0BC01640262704700BF20
:103C4000002C0140F0B4046A8F680E68134D24F410
:103C500080340462026A4468436D23F4803322F4A2
:103C6000003223F07003A84242EA074243EA060307
:103C700007D005F5A055A84203D005F58065A842F8
:103C800004D14D6924F4803444EA05244968446031
:103C90004365F0BC81650262704700BF002C0140A3
:103CA000F0B4046A8F680E68134D24F48014046223
:103CB000026A4468436D23F0807322F4001223F4F7
:103CC000E043A84242EA075243EA062307D005F53B
:103CD000A055A84203D005F58065A84204D14D69DE
:103CE00024F4802444EA8524496844604365F0BC98
:103CF000C1650262704700BF002C014002230268C8
:103D000080F83D309168084B0B40062B06D0B3F588
:103D1000803F03D0136843F001031360012380F850
:103D20003D300020704700BF0700010003680122FA
:103D3000186A01F01F0102FA01F120EA010010B433
:103D400018621A6A0F4C1143A342196206D00E4A38
:103D5000934203D002F58062934203D15A6C42F43D
:103D600000425A649968094A0A40062A06D0B2F508
:103D7000803F03D01A6842F001021A6000205DF80B
:103D8000044B7047002C0140004001400700010037
:103D9000704700BFFFF7CABF036830B41A6A1B4CF4
:103DA00001F01F050121A94022EA010119621A6AE6
:103DB0001A62A3421AD0164A934217D002F58062C3
:103DC000934213D0196A41F21112114208D1196AB3
:103DD00040F24442114203D11A6822F001021A60F3
:103DE000012380F83D3030BC00207047196A41F251
:103DF00011121142E6D1196A40F244421142E1D156
:103E00005A6C22F400425A64DCE700BF002C0140E7
:103E100000400140704700BF90F83C30012B5AD061
:103E200002220368F0B480F83D209D680A684D4C7A
:103E3000402A04EA05044FF0010580F83C509C60DC
:103E400074D04AD9602A2DD056D9702A1AD0B2F52A
:103E5000005F0ED1D1E90152CC6899682A4342EA49
:103E6000042221F47F410A439A609A6842F4804216
:103E70009A600023012280F83D2080F83C30F0BC9D
:103E800018467047D1E90152CC6899682A4342EA42
:103E9000042221F47F410A439A609A6842F0770233
:103EA0009A60E6E71C6A4D68CE6824F010041C6234
:103EB00099691A6A21F4704122F0A00242EA0512BF
:103EC00041EA063199611A629A6822F0700242F062
:103ED00067029A60CDE702207047102A04D03DD9CE
:103EE000202A01D0302AC4D1996842F0070221F07B
:103EF00070010A439A60BCE7502ABAD11D6A1E6A53
:103F00004C68CF6826F001061E629A6925F00A0106
:103F100022F0F00242EA071221439A6119629A687C
:103F200022F0700242F057029A60A2E71D6A1E6AF0
:103F30004C68CF6826F001061E629A6925F00A01D6
:103F400022F0F00242EA071221439A6119629A684C
:103F500022F0700242F047029A608AE7002AC3D03A
:103F600087E700BF8800FEFF704700BF704700BFB3
:103F7000704700BF704700BF704700BF03681A69F1
:103F8000910710B5044602D5DA68920768D41A6919
:103F9000520702D5DA6850074FD41A69110702D5C3
:103FA000DA68120737D41A69D00602D5DA68D10662
:103FB0001ED41A69D20702D5DA68D00769D41A6903
:103FC000110602D5DA6812066BD41A69D00502D53B
:103FD000DA6811066DD41A69520602D5DA685006FD
:103FE0006FD41A69910602D5DA68920649D410BDD9
:103FF0006FF010021A61DB69082213F4407F227708
:1040000020466FD1FFF7B2FF2046FFF7B3FF002233
:1040100023682277CDE76FF008021A61DB6904227A
:104020009B07227720465AD1FFF7A0FF2046FFF7D3
:10403000A1FF002223682277B5E76FF004021A611E
:104040009B69022213F4407F2277204644D1FFF778
:104050008DFF2046FFF78EFF0022236822779CE722
:104060006FF002021A619B6901229907027730D131
:10407000FFF77CFF2046FFF77DFF002223682277B1
:1040800085E76FF0200220461A61BDE8104000F07D
:104090002FBA6FF001021A612046FFF765FF23680F
:1040A0008DE76FF080021A61204600F023FA236842
:1040B0008BE76FF480721A61204600F01DFA2368C6
:1040C00089E76FF040021A612046FFF755FF236829
:1040D00087E7FFF74DFFD0E7FFF74AFFBCE7FFF7A1
:1040E00047FFA6E7FFF744FF91E700BFF0B41D4C80
:1040F00003684F698D680A68A0421DD0B0F1804FF7
:1041000011D004F5A054A0422AD004F58064A04246
:1041100026D023F080033B4303600123C562826203
:10412000F0BC436170474C68C96823F070032343B7
:1041300023F440730B43ECE74E68CC6823F0700324
:10414000334323F44073234323F080033B43036052
:10415000C56282620B69036301234361F0BC70474F
:10416000CC68EEE7002C0140B8B190F83D3010B5B6
:1041700003F0FF0204465BB1022384F83D3020685F
:10418000211DFFF7B3FF012384F83D30002010BD4F
:1041900080F83C2004F0C6F9EEE70120704700BF2C
:1041A000B8B190F83D3010B503F0FF0204465BB1A2
:1041B000022384F83D302068211DFFF797FF01237B
:1041C00084F83D30002010BD80F83C20FFF7E0FD72
:1041D000EEE70120704700BF00B390F83D3070B5A6
:1041E00003F0FF0204460D469BB1022384F83D30E4
:1041F0002068211DFFF77AFF23681A6822F0080261
:104200001A601A6801262A431A60002084F83D606B
:1042100070BD80F83C20FFF7FDFDE6E70120704708
:10422000F0B4046A8F680E68174D24F0100404621D
:10423000026A4468836923F0807322F0200223F429
:10424000E643A84242EA071243EA062313D00F4D81
:10425000A84202D00E4DA84206D1D1E9055624F459
:104260004064354344EA8504496844608361F0BC96
:10427000816302627047CD6822F0800242EA051233
:1042800022F04002E9E700BF002C0140004001405D
:104290000044014038B590F83C30012B00F0AA8072
:1042A0000D4602230121044680F83C1080F83D3081
:1042B000142A1DD8DFE802F00B1C1C1C3C1C1C1C23
:1042C000551C1C1C6D1C1C1C861C1C1C2300294618
:1042D0000068FFF71BFC23682869996941F0080111
:1042E0009961996921F0040199619A6902439A617F
:1042F0000123002084F83D3084F83C0038BD294675
:104300000068FFF7CDFC23682869596D41F400610E
:104310005965596D21F4806159655A6D42EA002250
:104320005A650020012384F83D3084F83C00E5E71D
:1043300029460068FFF774FF23682869996941F4EA
:1043400000619961996921F4806199619A6942EAF1
:1043500000229A610020012384F83D3084F83C005B
:10436000CCE729460068FFF705FC23682869D9696E
:1043700041F00801D961D96921F00401D961DA69F4
:104380000243DA610020012384F83D3084F83C00C8
:10439000B4E729460068FFF727FC23682869D96934
:1043A00041F40061D961D96921F48061D961DA6988
:1043B00042EA0022DA610020012384F83D3084F8CB
:1043C0003C009BE729460068FFF73CFC236828690E
:1043D000596D41F008015965596D21F00401596585
:1043E0005A6D02435A650020012384F83D3084F859
:1043F0003C0083E7022038BD90F83C30012B2ED0E2
:10440000F0B40368174C0E68022280F83D200125A5
:10441000A3425A6880F83C509D6817D022F0700281
:104420003243B3F1804F5A6002D00F4A934204D115
:104430008A6825F0800515439D600023012280F8DD
:104440003D2080F83C30F0BC184670474F6822F49D
:1044500070043C4324F0700434435C60E8E70220BD
:10446000704700BF002C01400040014090F83C30F4
:10447000012B38D030B4D1E90253024623F4407303
:10448000D1E900042B4323F48063234323F4006326
:10449000D1E90454034323F480532B4323F4005302
:1044A000886A8D69234323F4804303430F4C1068CB
:1044B00023F47023A04243EA054306D0002143645D
:1044C00030BC084682F83C1070474D6A23F47003F4
:1044D000D1E9074143EA055323F08073234323F0D6
:1044E00000730B43EAE70220704700BF002C014035
:1044F000704700BF704700BF704700BF70B40748E7
:10450000074E084D084C0949094A002333602B60C7
:104510002360036070BC0B6013607047B80100201B
:10452000BC010020B4010020AC010020B00100203B
:10453000A8010020FFF7E2BF38B54FF480620021E8
:1045400009480A4C0A4D04F0E5FB0A490A480B4A9F
:10455000002323700B7007240121047011702B704D
:10456000BDE8384000F060BCD4010020DC00002031
:10457000D6050020DD000020D5050020D405002050
:104580002DE9F04F87B0013A89460093DDF840A04D
:10459000032A0BD8DFE812F0180126011F010400DE
:1045A000954B93F800805C785B680593009B5F07F0
:1045B00040F100815046FBF70BFE08FB0000C0F104
:1045C0008003C3F34703009800F0080E23B38B4E1B
:1045D00000F001050022304606EBC91194462E4634
:1045E00009F1010B7546FF278646002D00F0B480C7
:1045F000082C0F7040F2C08081F880702EB181F8D5
:1046000000C00EEBCB1000F802C00132D0B29842CD
:1046100001F10101E9D3AE46794A1178494588BFD5
:1046200082F800909AF80010002965D0734DCDF8FB
:1046300010E009F10102D201039205EB020B009A8E
:10464000DDF814E04FEAC91002F00A02029005EB0F
:10465000000C019205E01AF8011F0133DBB20029BA
:1046600048D0A1F12002D2B2082C12FB08F294BF6C
:1046700072440EEB42021F29EDD99DF80470B8F187
:10468000000F00F0B68008EB0305EDB20CE0082C3B
:104690000CF803605ED95178C9430BF8031002325D
:1046A0000133DBB2AB4212D0114611F8010BC64305
:1046B000002FECD1082C0CF803004BD951780BF8E3
:1046C00003100133DBB2AB4202F10202ECD1002F46
:1046D0004AD04A49029BCB18FF22082C5A5549D987
:1046E000039B19442B464A551AF8011F0133DBB2CC
:1046F0000029B6D1DDF810E0BEF1000F42D01E0651
:1047000011D43E4E09F1010206EBC910FF2106EB60
:10471000C216082C03F10102C15488BFF154D3B270
:104720001D06F6D580233749374A0B70374B82F880
:104730000090082C1A7884BF09F101095FFA89F901
:104740004A4538BF83F80090314B01221A7007B0F8
:10475000BDE8F08F0A46A3E7002E3FF456AF082CC1
:104760000D707FF652AF4CE7244A029BD318082CF9
:104770005F5524D82B466EE7002E3FF446AF81F8F4
:1047800000C042E7009AD007CDD51906CBD41B4E06
:1047900009F1010206EBC91106EBC2165A1C082CDE
:1047A00001F803E088BF06F803E0D3B21A06F5D596
:1047B0008023B8E708FB000000F0FF0303E7039B3A
:1047C0001A442B46575546E7124B93F800805C7805
:1047D0005B680593EAE6104B93F800805C785B68B1
:1047E0000593E3E60D4B93F800805C785B680593D6
:1047F000DCE61D466BE700BFECA10008D4010020F9
:10480000D6050020DC000020DD000020D5050020BA
:10481000D4050020D4A10008E4A10008DCA1000810
:10482000F0B402F00704114D88424FEAD2022F5D26
:104830000CD80F4E06EBC216034200F1010402D160
:10484000355C3D433554E0B28142F5D2094B1978CD
:10485000914238BF1A70084B1978914288BF1A707C
:10486000064B01221A70F0BC704700BFF4B8000874
:10487000D4010020D5050020D6050020D405002055
:104880002DE9F04FDFF820E1DFF820919EF800C01D
:1048900099F80080414D013100F00706091AC0085F
:1048A0008445C6F108043CBF8EF800008446C9B2B6
:1048B000804583B0E4B2AD5D84BF89F800008046D6
:1048C000002933D003F00806354F0196082C08BFA5
:1048D0002E4617D0013903EA040A6E00013CC9B222
:1048E000E4B2F6B2BAF1000F07D107EBC01B1BF818
:1048F00002A045EA0A050BF802502CBB0130C0B2F9
:10490000A1B10126072923D8019C01397500C9B23C
:10491000EDB2002C3DD107EBC01A07241AF802B003
:1049200046EA0B060AF802600029CFD184451D4BE8
:1049300038BF8EF800000122804588BF89F800004A
:104940001A7003B0BDE8F08F35460029BED1EDE7FF
:10495000A1F10804C4F3C404451C2C44E4B205E0EE
:10496000E8B2A0420AF802300CD0451C07EBC01A8E
:104970005046002BF4D14FF0FF3A00F802A0E8B205
:10498000A042F2D101F007013546082400299DD14B
:10499000CCE70724002999D1C8E700BFF4B8000884
:1049A000D4010020D4050020D5050020D605002024
:1049B0002DE9F0410F46154604461E4619460246AB
:1049C00000233846FFF75CFF2A463146384600236D
:1049D000FFF756FF3A46294620460023FFF720FFFF
:1049E0003246294620460023BDE8F041FFF718BFB4
:1049F0002DE9F04F374A384BDFF8E4C00024072197
:104A000014F0FF054FEA5006117000F001001C7011
:104A10000CF17B0B4FF0F4084FF0160A4FF0F6093B
:104A200022D0072D2DD02D4AAE420BEBC41302F13C
:104A300004074FF0FF0108D09742197003F10103FA
:104A40000CD0AE4212F8011BF6D161F00F0E68B324
:104A5000974283F800E003F10103F2D1072D20D043
:104A6000013414F0FF05DCD11EBBF7238CF87B80EA
:104A70008CF87C908CF87E908CF87F808CF87D3060
:104A8000EEE7072E164B21D0E8202F21682283F86D
:104A9000FD0383F8FB1383F8FF1383F8FC2383F8EB
:104AA000FE23104B01221A70BDE8F08F41F00F0178
:104AB000C2E74FF017038CF87B808CF87CA08CF851
:104AC0007D308CF87EA08CF87F80C9E7EF202F2105
:104AD0006F22DCE7D5050020D6050020E3B80008EA
:104AE000D4010020D40500202DE9F04FDFF8B8E014
:104AF0009EF800308B429CBF4B1C8EF80030254B3B
:104B000091461A78D9F804C08A4288BF1970B9F85A
:104B1000003099F802201C18A0424FEAD202074642
:104B200034D21D4C01EB020804EBC81A02F1FF3B22
:104B300072B10CF1FF330AEB07040CEB0B0613F810
:104B4000015F04F8805DB342F9D1B9F800309444B4
:104B500001371C18BC42EBD8FFB2104B104A197039
:104B60005FFA88F8B8F1070F88BF072300F101004A
:104B7000074488BF8EF800300A4B17704FF00102CF
:104B80001A7098BF8EF80080BDE8F08F01EB020824
:104B9000E3E700BFD6050020D4010020DD0000209F
:104BA000DC000020D4050020D505002070B40848A2
:104BB000084E094D094C0A490A4A002303600120A6
:104BC00033702B7023700870137070BC704700BF77
:104BD000D0010020E0000020CD010020DE000020F8
:104BE00028000020DF00002038B54FF400614FF0AE
:104BF0009040FDF747F9304B1A78904200D038BD0D
:104C00002E4D2F492A780C6852B20020012A0860E4
:104C10002ED0042A0FD0002AF1D11A78002A36D0DB
:104C2000553C0A2C04D8274A12780AB901222A7066
:104C300000221A7038BD244A11781F290FD81D2C64
:104C40000DD8224822490160A4F10B00032828D87E
:104C500008684008086011780131C9B211701278F3
:104C60001F2A17D81E2CCAD900222A701A7038BDE4
:104C7000293C082C09D8154C154A134922600424F4
:104C80002C7018701060087038BD287038BD012273
:104C90001A7038BD0B490022012008702A701A7062
:104CA00038BD102CD7D9086840080860086840F063
:104CB00000400860CFE700BFDF000020E0000020D8
:104CC000C8010020CD010020DE000020D00100201E
:104CD000C0010020054A136801336E2B136004D90C
:104CE0000349044A00230B7013707047C801002069
:104CF000E0000020DF00002030B583B002AC0D4D95
:104D000004F8010D012210214FF09040FDF7C0F88A
:104D1000284600222021FDF7BBF821460A23012264
:104D20000548FEF721FE284601222021FDF7B0F8B4
:104D300003B030BD000800489C09002030B583B0A6
:104D400002AC0D4D04F8010D002210214FF09040EF
:104D5000FDF79EF8284600222021FDF799F821460C
:104D60000A2301220548FEF7FFFD284601222021E3
:104D7000FDF78EF803B030BD000800489C09002004
:104D800038B5002210214FF09040214CFDF780F8FB
:104D90000A2323602368002BFCD10A2323602368A5
:104DA000002BFCD1A820FFF7C9FF3F20FFF7C6FF6B
:104DB000A120FFF7C3FFC820FFF7C0FF4FF47A73AD
:104DC00023602368002BFCD18120FFF7B7FF7F20F1
:104DD000FFF7B4FF8D20FFF7B1FF1420FFF7AEFF00
:104DE0004FF47A7323602568002DFCD1AF20FFF7C4
:104DF000A5FF4020FFF7A2FFB020FFF79FFF102084
:104E0000FFF79CFF2846BDE83840FFF797BF00BF7B
:104E10008C08002010B504468120FFF78FFF204644
:104E2000BDE81040FFF78ABF2DE9F047DFF8649036
:104E3000DFF864A099F80030154F03B39AF80060CA
:104E40003B78B3421BD3DFF85480A6F15000C0B2C8
:104E5000FFF774FF1020FFF771FF0020FFF76EFFD0
:104E600008EBC61404F1800514F8010BFFF744FFAA
:104E7000AC42F9D101363B78F6B2B342E5D2002319
:104E800008223B708AF8002089F80030BDE8F087DE
:104E9000D5050020D4050020D6050020D40100202F
:104EA00000210148FEF778BF4C09002010B5054CE1
:104EB00000212046FEF76EFF20460421BDE8104089
:104EC000FEF768BF040A002010B5054C00212046FB
:104ED000FEF762FF20460421BDE81040FEF75CBFEC
:104EE000040A002010B588B180EAE074A4EBE074F5
:104EF000FF2CA8BFFF2400280ADD0022202109483A
:104F0000FCF7C6FF084B1B685C6310BD0124F4E787
:104F1000012220210348FCF7BBFF034B1B685C63A5
:104F200010BD00BF00040048040A002010B588B17D
:104F300080EAE074A4EBE074FF2CA8BFFF240028F3
:104F40000ADD012210210948FCF7A2FF084B1B686B
:104F50009C6310BD0124F4E7002210210348FCF7F4
:104F600097FF034B1B689C6310BD00BF0004004803
:104F7000040A002070B584B00C788DF80D20192338
:104F8000A4B206468DF80C304FF47A7500950223D2
:104F900003AA21463046FDF7E9F80028F6D104B00F
:104FA00070BD00BF2DE9F04385B004AF0C781C2321
:104FB00007F8013D894605469046A4B24FF47A763B
:104FC000009601233A4621462846FDF7CFF80028EF
:104FD000F6D121460DF10E02012300962846FDF779
:104FE00079F99DF80E30009623F0180321460DF153
:104FF0000E0243EAC804284601238DF80E40FDF74F
:10500000B5F8B8F1030F07D8DFE808F0021A120A62
:105010004FF06253C9F80830002005B0BDE8F083B6
:105020004FF068530020C9F8083005B0BDE8F083A0
:105030004FF066530020C9F8083005B0BDE8F08392
:105040004FF064530020C9F8083005B0BDE8F08384
:1050500070B50D4684B091F9001014464FF47A7380
:10506000D20000931B2602238DF80D2089B203AADB
:105070008DF80C60FDF77AF8032C05D8DFE804F012
:1050800002110C07094B6B60002004B070BD084B87
:105090006B60002004B070BD064B6B60002004B054
:1050A00070BD054B6B60002004B070BD2D23FA3B32
:1050B000C10F7C3D90C1F93C2D237A3C2DE9F0478E
:1050C00042F0D00284B094B20A7075260D4698461C
:1050D0002146052302228DF80A609DF830700646AD
:1050E000FDF7AEF918B1012004B0BDE8F0874FF428
:1050F0007A79CDF8009001230DF10A02214630465D
:10510000FDF734F80028EED1CDF8009001230DF121
:105110000B0221463046FDF7DDF80028E3D19DF86B
:105120000B30682B01D00320DEE70DF1100A40F2AE
:105130006B132AF8043D2146CDF800905246022315
:105140003046FDF713F80028CDD140F21A2CCDF8E7
:1051500000900223524621463046ADF80CC0FDF7C0
:1051600005F80028BFD1024629463046FFF702FF66
:10517000294642463046FFF715FF29463A46304653
:10518000FFF766FF4BF237052146CDF800905246F7
:10519000304641240323ADF80C508DF80E40FCF747
:1051A000E5FF003018BF01209EE700BFF0B587B0D3
:1051B0000E7806AA4FF47A75472302F8093D0C468B
:1051C0000746314600950123FCF7D0FF04AA31467B
:1051D000009538460223FDF77DF89DF810209DF8D4
:1051E0001130002043EA0223E38207B0F0BD00BF84
:1051F0002749A1F15402F8B51E20DC24782354601D
:105200005061502401203C2593609461C8230624FA
:10521000D0622320D560D36114252123146310614B
:105220000A24106244F620609562536354629463CA
:10523000154613460024C2E90F00C2E91100C2E975
:1052400013004AF65522C1E9004441F8542C01E00C
:1052500053F8042F8B421444FAD15C2210210D48DC
:10526000AC6501F083FF0C4B1A691E2702F1AB04F9
:10527000142101267825596018461F60C3E902658C
:105280005C6118228021BDE8F84001F06FBF00BFCB
:1052900078060020240600200C0600200A4B4AF65F
:1052A000552230B403F154011D461A60002401E078
:1052B00053F8042F8B421444FAD1AC655C221021C0
:1052C000014830BC01F052BF24060020084B30B426
:1052D000D3E90025D3E902402A4419692244024453
:1052E0008C185C6118461822802130BC01F03EBF4A
:1052F0000C06002010B50E4C0D485C22102101F068
:10530000B5FF0022234604F1580053F8041B8342E2
:105310000A44FAD1A16D914201D0012010BD53F889
:10532000580C4AF65523C01A18BF012010BD00BF03
:105330002406002070B50A4C18222046802101F076
:1053400095FFD4E90036D4E90251D4E9042033446E
:105350002B440B441344181A18BF012070BD00BF22
:105360000C06002000B583B0FFF742FFFFF7E4F81A
:10537000094B0093132202230321012001F0A6FE12
:10538000064A44F6206313601368002BFCD1012009
:1053900003B05DF804FB00BFFCB800088C080020D7
:1053A00030B51F4C237883B07BB1012B0AD11D4946
:1053B00001F0C0FC012827D0022803D1002323706C
:1053C00003B030BD002003B030BD174A174B117831
:1053D0001A681748134B174D8068286002EB0112BA
:1053E00040F20311998052681349DA603220196043
:1053F000D861E6221946FF209A619D6001F09AFC6F
:10540000012301282370D7D10A4A094B1268019061
:105410009A60FFF743FF01980023237003B030BD6B
:10542000E1000020AC060020A8060020A406002011
:1054300024060020E40000200503020530B51F4CBF
:10544000237883B07BB1012B0AD11D4901F072FC96
:10545000012826D0022803D10023237003B030BDD9
:10546000002003B030BD1749174A0D781168144A5F
:105470001648D36101EB051340F2031191805B687C
:10548000134DC0681349D360FF2311602860114693
:1054900018469361956001F04DFC012301282370AB
:1054A000D8D10B4A094B12680190DA60FFF7F6FE7B
:1054B00001980023237003B030BD00BFE10000203D
:1054C000AC060020A8060020A40600202406002028
:1054D000E40000200503020570B51F4C237882B05C
:1054E0007BB1012B0AD11D4901F024FC012827D0F2
:1054F000022803D10023237002B070BD002002B047
:1055000070BD174A174B11781A68144B1648174E7E
:105510000069306002EB011240F203119980526879
:105520001349DA60FF251960282219462846DA61F6
:105530009E609D6101F0FEFB012301282370D7D1FD
:105540000A4A094B126801901A61FFF7A7FE0198F9
:105550000023237002B070BDE1000020AC060020E3
:10556000A8060020A406002024060020E400002055
:105570000503020530B51F4C237883B07BB1012BA6
:105580000AD11D4901F0D6FB012827D0022803D1FA
:105590000023237003B030BD002003B030BD174A94
:1055A000174B11781A681748134B174D406928603C
:1055B00002EB011240F20311998052681349DA603C
:1055C0001E201960D86196221946FF209A619D60BD
:1055D00001F0B0FB012301282370D7D10A4A094BFF
:1055E000126801905A61FFF759FE01980023237059
:1055F00003B030BDE1000020AC060020A80600206A
:10560000A406002024060020E40000200503020573
:1056100030B51F4C237883B07BB1012B0AD11D49D3
:1056200001F088FB012827D0022803D10023237032
:1056300003B030BD002003B030BD174A174B1178BE
:105640001A681748134B174D8069286002EB011246
:1056500040F20311998052681349DA6014201960EE
:10566000D861C8221946FF209A619D6001F062FB53
:10567000012301282370D7D10A4A094B12680190EF
:105680009A61FFF70BFE01980023237003B030BD31
:10569000E1000020AC060020A8060020A40600209F
:1056A00024060020E40000200503020570B51F4C0D
:1056B000237882B07BB1012B0AD11D4901F03AFB5E
:1056C000012826D0022803D10023237002B070BD28
:1056D000002002B070BD174A174B11781A6817489E
:1056E000134B174EC069306002EB011240F20311F8
:1056F000998052681348DA601860C822012519465B
:10570000FF209A619E60DD6101F014FB0128257085
:10571000D8D10B4A094B12680190DA61FFF7BEFD40
:1057200001980023237002B070BD00BFE10000208B
:10573000AC060020A8060020A406002024060020B5
:10574000E40000200503010570B51F4C237882B0EA
:105750007BB1012B0AD11D4901F0ECFA012826D0BA
:10576000022803D10023237002B070BD002002B0D4
:1057700070BD174A174B11781A68144B164D17480D
:105780002D6A056002EB011240F203119980516805
:10579000134AD960FF260125986019461A603046E1
:1057A000C3E9066501F0C6FA01282570D8D10B4A75
:1057B000094B126801901A62FFF770FD01980023EF
:1057C000237002B070BD00BFE1000020AC060020D5
:1057D000A8060020A406002024060020E4000020E3
:1057E0000503010170B51F4C237882B07BB1012BFA
:1057F0000AD11D4901F09EFA012826D0022803D1C2
:105800000023237002B070BD002002B070BD174AA3
:10581000174B11781A681748134B174E406A3060BF
:1058200002EB011240F20311998052681348DA60CA
:105830001860322201251946FF209A619E60DD61C1
:1058400001F078FA01282570D8D10B4A094B12686B
:1058500001905A62FFF722FD01980023237002B0E5
:1058600070BD00BFE1000020AC060020A8060020AB
:10587000A406002024060020E40000200503010106
:1058800070B51F4C237882B07BB1012B0AD11D4922
:1058900001F050FA012826D0022803D100232370FA
:1058A00002B070BD002002B070BD174A174B1178CE
:1058B0001A681748134B174E806A306002EB0112CA
:1058C00040F20311998052681348DA601860C822C8
:1058D00001251946FF209A619E60DD6101F02AFAD8
:1058E00001282570D8D10B4A094B126801909A62A1
:1058F000FFF7D4FC01980023237002B070BD00BFF5
:10590000E1000020AC060020A8060020A40600202C
:1059100024060020E40000200503010170B51F4C9F
:10592000237882B07BB1012B0AD11D4901F002FA24
:10593000012826D0022803D10023237002B070BDB5
:10594000002002B070BD174A174B11781A6817482B
:10595000134B174EC06A306002EB011240F2031184
:10596000998052681348DA601860C82201251946E8
:10597000FF209A619E60DD6101F0DCF9012825704D
:10598000D8D10B4A094B12680190DA62FFF786FC06
:1059900001980023237002B070BD00BFE100002019
:1059A000AC060020A8060020A40600202406002043
:1059B000E40000200503010170B51F4C237882B07C
:1059C0007BB1012B0AD11D4901F0B4F9012826D081
:1059D000022803D10023237002B070BD002002B062
:1059E00070BD174A174B11781A681748134B174E9A
:1059F000006B306002EB011240F203119980526893
:105A00001348DA601860322201251946FF209A6196
:105A10009E60DD6101F08EF901282570D8D10B4A16
:105A2000094B126801901A63FFF738FC01980023B4
:105A3000237002B070BD00BFE1000020AC06002062
:105A4000A8060020A406002024060020E400002070
:105A50000503010170B51F4C237882B07BB1012B87
:105A60000AD11D4901F066F9012826D0022803D188
:105A70000023237002B070BD002002B070BD174A31
:105A8000174B11781A681748134B174E406B30604C
:105A900002EB011240F20311998052681348DA6058
:105AA0001860C82201251946FF209A619E60DD61B9
:105AB00001F040F901282570D8D10B4A094B126832
:105AC00001905A63FFF7EAFB01980023237002B0AC
:105AD00070BD00BFE1000020AC060020A806002039
